{
  "abi": [
    {
      "inputs": [],
      "name": "COWSWAP_ADDRESS",
      "outputs": [
        {
          "internalType": "address",
          "name": "",
          "type": "address"
        }
      ],
      "stateMutability": "view",
      "type": "function"
    },
    {
      "inputs": [],
      "name": "COWSWAP_TEST_DOMAIN_SEPARATOR",
      "outputs": [
        {
          "internalType": "bytes32",
          "name": "",
          "type": "bytes32"
        }
      ],
      "stateMutability": "view",
      "type": "function"
    }
  ],
  "bytecode": {
    "object": "0x60ef610039600b82828239805160001a60731461002c57634e487b7160e01b600052600060045260246000fd5b30600052607381538281f3fe7300000000000000000000000000000000000000003014608060405260043610603d5760003560e01c806376f971a4146042578063a0c842d0146086575b600080fd5b605c739008d19f58aabd9ed0d60971565aa8510560ab4181565b60405173ffffffffffffffffffffffffffffffffffffffff90911681526020015b60405180910390f35b60ac7f28dc932d67cd79da82085f7fbb19d7c88f84894397b07917354176f60f0096d481565b604051908152602001607d56fea264697066735822122086364a52d373b15e4e9965ca7eae1978e2eca30b370a37462361adb7f146f94f64736f6c63430008100033",
    "linkReferences": {}
  },
  "methodIdentifiers": {
    "COWSWAP_ADDRESS()": "76f971a4",
    "COWSWAP_TEST_DOMAIN_SEPARATOR()": "a0c842d0"
  },
  "id": 23
}