{"abi":[{"type":"function","name":"COWSWAP_AUTHENTICATOR","inputs":[],"outputs":[{"name":"","type":"address","internalType":"address"}],"stateMutability":"view"},{"type":"function","name":"COWSWAP_DEPLOYER","inputs":[],"outputs":[{"name":"","type":"address","internalType":"address"}],"stateMutability":"view"},{"type":"function","name":"COWSWAP_SETTLEMENT","inputs":[],"outputs":[{"name":"","type":"address","internalType":"address"}],"stateMutability":"view"},{"type":"function","name":"COWSWAP_TEST_DOMAIN_SEPARATOR","inputs":[],"outputs":[{"name":"","type":"bytes32","internalType":"bytes32"}],"stateMutability":"view"}],"bytecode":{"object":"0x61014161003a600b82828239805160001a60731461002d57634e487b7160e01b600052600060045260246000fd5b30600052607381538281f3fe73000000000000000000000000000000000000000030146080604052600436106100565760003560e01c8063020f10cd1461005b5780630af066ec146100a0578063a0c842d0146100bb578063bc9e4f8a146100f0575b600080fd5b610076734e59b44847b379578588920ca78fbf26c0b4956c81565b60405173ffffffffffffffffffffffffffffffffffffffff90911681526020015b60405180910390f35b610076739008d19f58aabd9ed0d60971565aa8510560ab4181565b6100e27f28dc932d67cd79da82085f7fbb19d7c88f84894397b07917354176f60f0096d481565b604051908152602001610097565b610076732c4c28ddbdac9c5e7055b4c863b72ea0149d8afe8156fea2646970667358221220933b1981c54cc70549583d35d1d6af50229505ec695f6e210e2b2e783a7a9a0a64736f6c63430008100033","linkReferences":{}},"methodIdentifiers":{"COWSWAP_AUTHENTICATOR()":"bc9e4f8a","COWSWAP_DEPLOYER()":"020f10cd","COWSWAP_SETTLEMENT()":"0af066ec","COWSWAP_TEST_DOMAIN_SEPARATOR()":"a0c842d0"},"id":46}