{"abi":[{"type":"constructor","inputs":[{"name":"settlementContractAddress","type":"address","internalType":"contract ICoWSwapSettlement"},{"name":"wrappedNativeToken","type":"address","internalType":"contract IWrappedNativeToken"}],"stateMutability":"nonpayable"},{"type":"receive","stateMutability":"payable"},{"type":"function","name":"cowSwapDomainSeparatorPublic","inputs":[],"outputs":[{"name":"","type":"bytes32","internalType":"bytes32"}],"stateMutability":"view"},{"type":"function","name":"cowSwapSettlement","inputs":[],"outputs":[{"name":"","type":"address","internalType":"contract ICoWSwapSettlement"}],"stateMutability":"view"},{"type":"function","name":"createOrder","inputs":[{"name":"order","type":"tuple","internalType":"struct EthFlowOrder.Data","components":[{"name":"buyToken","type":"address","internalType":"contract IERC20"},{"name":"receiver","type":"address","internalType":"address"},{"name":"sellAmount","type":"uint256","internalType":"uint256"},{"name":"buyAmount","type":"uint256","internalType":"uint256"},{"name":"appData","type":"bytes32","internalType":"bytes32"},{"name":"feeAmount","type":"uint256","internalType":"uint256"},{"name":"validTo","type":"uint32","internalType":"uint32"},{"name":"partiallyFillable","type":"bool","internalType":"bool"},{"name":"quoteId","type":"int64","internalType":"int64"}]}],"outputs":[{"name":"orderHash","type":"bytes32","internalType":"bytes32"}],"stateMutability":"payable"},{"type":"function","name":"invalidateOrder","inputs":[{"name":"order","type":"tuple","internalType":"struct EthFlowOrder.Data","components":[{"name":"buyToken","type":"address","internalType":"contract IERC20"},{"name":"receiver","type":"address","internalType":"address"},{"name":"sellAmount","type":"uint256","internalType":"uint256"},{"name":"buyAmount","type":"uint256","internalType":"uint256"},{"name":"appData","type":"bytes32","internalType":"bytes32"},{"name":"feeAmount","type":"uint256","internalType":"uint256"},{"name":"validTo","type":"uint32","internalType":"uint32"},{"name":"partiallyFillable","type":"bool","internalType":"bool"},{"name":"quoteId","type":"int64","internalType":"int64"}]}],"outputs":[],"stateMutability":"nonpayable"},{"type":"function","name":"invalidateOrdersIgnoringNotAllowed","inputs":[{"name":"orderArray","type":"tuple[]","internalType":"struct EthFlowOrder.Data[]","components":[{"name":"buyToken","type":"address","internalType":"contract IERC20"},{"name":"receiver","type":"address","internalType":"address"},{"name":"sellAmount","type":"uint256","internalType":"uint256"},{"name":"buyAmount","type":"uint256","internalType":"uint256"},{"name":"appData","type":"bytes32","internalType":"bytes32"},{"name":"feeAmount","type":"uint256","internalType":"uint256"},{"name":"validTo","type":"uint32","internalType":"uint32"},{"name":"partiallyFillable","type":"bool","internalType":"bool"},{"name":"quoteId","type":"int64","internalType":"int64"}]}],"outputs":[],"stateMutability":"nonpayable"},{"type":"function","name":"isValidSignature","inputs":[{"name":"orderHash","type":"bytes32","internalType":"bytes32"},{"name":"","type":"bytes","internalType":"bytes"}],"outputs":[{"name":"","type":"bytes4","internalType":"bytes4"}],"stateMutability":"view"},{"type":"function","name":"orders","inputs":[{"name":"","type":"bytes32","internalType":"bytes32"}],"outputs":[{"name":"owner","type":"address","internalType":"address"},{"name":"validTo","type":"uint32","internalType":"uint32"}],"stateMutability":"view"},{"type":"function","name":"unwrap","inputs":[{"name":"amount","type":"uint256","internalType":"uint256"}],"outputs":[],"stateMutability":"nonpayable"},{"type":"function","name":"wrap","inputs":[{"name":"amount","type":"uint256","internalType":"uint256"}],"outputs":[],"stateMutability":"nonpayable"},{"type":"function","name":"wrapAll","inputs":[],"outputs":[],"stateMutability":"nonpayable"},{"type":"function","name":"wrappedNativeToken","inputs":[],"outputs":[{"name":"","type":"address","internalType":"contract IWrappedNativeToken"}],"stateMutability":"view"},{"type":"event","name":"OrderInvalidation","inputs":[{"name":"orderUid","type":"bytes","indexed":false,"internalType":"bytes"}],"anonymous":false},{"type":"event","name":"OrderPlacement","inputs":[{"name":"sender","type":"address","indexed":true,"internalType":"address"},{"name":"order","type":"tuple","indexed":false,"internalType":"struct GPv2Order.Data","components":[{"name":"sellToken","type":"address","internalType":"contract IERC20"},{"name":"buyToken","type":"address","internalType":"contract IERC20"},{"name":"receiver","type":"address","internalType":"address"},{"name":"sellAmount","type":"uint256","internalType":"uint256"},{"name":"buyAmount","type":"uint256","internalType":"uint256"},{"name":"validTo","type":"uint32","internalType":"uint32"},{"name":"appData","type":"bytes32","internalType":"bytes32"},{"name":"feeAmount","type":"uint256","internalType":"uint256"},{"name":"kind","type":"bytes32","internalType":"bytes32"},{"name":"partiallyFillable","type":"bool","internalType":"bool"},{"name":"sellTokenBalance","type":"bytes32","internalType":"bytes32"},{"name":"buyTokenBalance","type":"bytes32","internalType":"bytes32"}]},{"name":"signature","type":"tuple","indexed":false,"internalType":"struct ICoWSwapOnchainOrders.OnchainSignature","components":[{"name":"scheme","type":"uint8","internalType":"enum ICoWSwapOnchainOrders.OnchainSigningScheme"},{"name":"data","type":"bytes","internalType":"bytes"}]},{"name":"data","type":"bytes","indexed":false,"internalType":"bytes"}],"anonymous":false},{"type":"event","name":"OrderRefund","inputs":[{"name":"orderUid","type":"bytes","indexed":false,"internalType":"bytes"},{"name":"refunder","type":"address","indexed":true,"internalType":"address"}],"anonymous":false},{"type":"error","name":"EthTransferFailed","inputs":[]},{"type":"error","name":"IncorrectEthAmount","inputs":[]},{"type":"error","name":"NotAllowedToInvalidateOrder","inputs":[{"name":"orderHash","type":"bytes32","internalType":"bytes32"}]},{"type":"error","name":"NotAllowedZeroSellAmount","inputs":[]},{"type":"error","name":"OrderIsAlreadyExpired","inputs":[]},{"type":"error","name":"OrderIsAlreadyOwned","inputs":[{"name":"orderHash","type":"bytes32","internalType":"bytes32"}]},{"type":"error","name":"ReceiverMustBeSet","inputs":[]}],"bytecode":{"object":"0x60e06040523480156200001157600080fd5b5060405162001b7338038062001b73833981016040819052620000349162000222565b8181816200004d816200015660201b620008d91760201c565b608052506001600160a01b0380831660a081905290821660c081905260408051634daa966160e11b81529051919263095ea7b3929091639b552cc291600480830192602092919082900301816000875af1158015620000b0573d6000803e3d6000fd5b505050506040513d601f19601f82011682018060405250810190620000d6919062000261565b6040516001600160e01b031960e084901b1681526001600160a01b03909116600482015260001960248201526044016020604051808303816000875af115801562000125573d6000803e3d6000fd5b505050506040513d601f19601f820116820180604052508101906200014b919062000288565b5050505050620002ac565b604080517f8b73c3c69bb8fe3d512ecc4cf759cc79239f7b179b0ffacaa9a75d522b39400f60208201527f6c85c0337eba1661327f94f3bf46c8a7f9311a563f4d5c948362567f5d8ed60c918101919091527ff9446b8e937d86f0bc87cac73923491692b123ca5f8761908494703758206adf606082015246608082018190526001600160a01b03831660a083015260009160c00160405160208183030381529060405280519060200120915050919050565b6001600160a01b03811681146200021f57600080fd5b50565b600080604083850312156200023657600080fd5b8251620002438162000209565b6020840151909250620002568162000209565b809150509250929050565b6000602082840312156200027457600080fd5b8151620002818162000209565b9392505050565b6000602082840312156200029b57600080fd5b815180151581146200028157600080fd5b60805160a05160c05161185f62000314600039600081816101340152818161063d015281816107eb0152818161086301528181610c71015261106f01526000818161030c0152610f890152600081816101e201528181610c350152610d17015261185f6000f3fe6080604052600436106100c05760003560e01c806368629bf411610074578063de0e9a3e1161004e578063de0e9a3e146102ba578063ea598cb0146102da578063ec30bb88146102fa57600080fd5b806368629bf4146101d35780637bc41b96146102065780639c3f1e901461022657600080fd5b8063322bba21116100a5578063322bba211461017b5780634c84c1c81461019c5780634cb76498146101b357600080fd5b80631626ba7e146100cc57806317fcb39b1461012257600080fd5b366100c757005b600080fd5b3480156100d857600080fd5b506100ec6100e73660046112ac565b61032e565b6040517fffffffff0000000000000000000000000000000000000000000000000000000090911681526020015b60405180910390f35b34801561012e57600080fd5b506101567f000000000000000000000000000000000000000000000000000000000000000081565b60405173ffffffffffffffffffffffffffffffffffffffff9091168152602001610119565b61018e610189366004611369565b61041c565b604051908152602001610119565b3480156101a857600080fd5b506101b161075e565b005b3480156101bf57600080fd5b506101b16101ce366004611382565b610769565b3480156101df57600080fd5b507f000000000000000000000000000000000000000000000000000000000000000061018e565b34801561021257600080fd5b506101b1610221366004611369565b6107ae565b34801561023257600080fd5b506102896102413660046113f8565b60006020819052908152604090205473ffffffffffffffffffffffffffffffffffffffff81169074010000000000000000000000000000000000000000900463ffffffff1682565b6040805173ffffffffffffffffffffffffffffffffffffffff909316835263ffffffff909116602083015201610119565b3480156102c657600080fd5b506101b16102d53660046113f8565b6107bc565b3480156102e657600080fd5b506101b16102f53660046113f8565b61085f565b34801561030657600080fd5b506101567f000000000000000000000000000000000000000000000000000000000000000081565b60008281526020818152604080832081518083019092525473ffffffffffffffffffffffffffffffffffffffff81168083527401000000000000000000000000000000000000000090910463ffffffff169282019290925290158015906103ad5750805173ffffffffffffffffffffffffffffffffffffffff90811614155b80156103c3575042816020015163ffffffff1610155b156103f157507f1626ba7e000000000000000000000000000000000000000000000000000000009050610416565b507fffffffff0000000000000000000000000000000000000000000000000000000090505b92915050565b600061043060a08301356040840135611440565b3414610468576040517f8b6ebb4d00000000000000000000000000000000000000000000000000000000815260040160405180910390fd5b81604001356000036104a6576040517feaec5c9d00000000000000000000000000000000000000000000000000000000815260040160405180910390fd5b426104b760e0840160c0850161146c565b63ffffffff1610156104f5576040517f89bb260100000000000000000000000000000000000000000000000000000000815260040160405180910390fd5b604080518082019091523381526000906020810161051960e0860160c0870161146c565b63ffffffff169052604080518082019091529091506000908082815260200130604051602001610574919060609190911b7fffffffffffffffffffffffffffffffffffffffff00000000000000000000000016815260140190565b604080517fffffffffffffffffffffffffffffffffffffffffffffffffffffffffffffffe08184030181529190529052905060006105ba610120860161010087016114a0565b60208085015160405161060193920160c09290921b825260e01b7fffffffff00000000000000000000000000000000000000000000000000000000166008820152600c0190565b604080517fffffffffffffffffffffffffffffffffffffffffffffffffffffffffffffffe08184030181529190528351909150610678906106717f000000000000000000000000000000000000000000000000000000000000000061066b368a90038a018a6114ef565b90610999565b8484610b68565b60008181526020819052604090205490945073ffffffffffffffffffffffffffffffffffffffff16156106df576040517f56a1d2b2000000000000000000000000000000000000000000000000000000008152600481018590526024015b60405180910390fd5b505060008281526020818152604090912082518154929093015163ffffffff1674010000000000000000000000000000000000000000027fffffffffffffffff00000000000000000000000000000000000000000000000090921673ffffffffffffffffffffffffffffffffffffffff90931692909217179055919050565b6107674761085f565b565b60005b818110156107a95761079783838381811061078957610789611589565b905061012002016000610c6a565b806107a1816115b8565b91505061076c565b505050565b6107b9816001610c6a565b50565b6040517f2e1a7d4d000000000000000000000000000000000000000000000000000000008152600481018290527f000000000000000000000000000000000000000000000000000000000000000073ffffffffffffffffffffffffffffffffffffffff1690632e1a7d4d90602401600060405180830381600087803b15801561084457600080fd5b505af1158015610858573d6000803e3d6000fd5b5050505050565b60007f000000000000000000000000000000000000000000000000000000000000000073ffffffffffffffffffffffffffffffffffffffff168260405160006040518083038185875af1925050503d8060008114610858576040519150601f19603f3d011682016040523d82523d6000602084013e610858565b604080517f8b73c3c69bb8fe3d512ecc4cf759cc79239f7b179b0ffacaa9a75d522b39400f60208201527f6c85c0337eba1661327f94f3bf46c8a7f9311a563f4d5c948362567f5d8ed60c918101919091527ff9446b8e937d86f0bc87cac73923491692b123ca5f8761908494703758206adf6060820152466080820181905273ffffffffffffffffffffffffffffffffffffffff831660a083015260009160c00160405160208183030381529060405280519060200120915050919050565b604080516101808101825260008082526020808301829052928201819052606082018190526080820181905260a0820181905260c0820181905260e082018190526101008201819052610120820181905261014082018190526101608201529083015173ffffffffffffffffffffffffffffffffffffffff16610a48576040517fefc9ccdf00000000000000000000000000000000000000000000000000000000815260040160405180910390fd5b6040518061018001604052808373ffffffffffffffffffffffffffffffffffffffff168152602001846000015173ffffffffffffffffffffffffffffffffffffffff168152602001846020015173ffffffffffffffffffffffffffffffffffffffff168152602001846040015181526020018460600151815260200163ffffffff80168152602001846080015181526020018460a0015181526020017ff3b277728b3fee749481eb3e0b3b48980dbbab78658fc419025cb16eee34677581526020018460e00151151581526020017f5a28e9363bb942b639270062aa6bb295f434bcdfc42c97267bf003f272060dc981526020017f5a28e9363bb942b639270062aa6bb295f434bcdfc42c97267bf003f272060dc9815250905092915050565b60008473ffffffffffffffffffffffffffffffffffffffff167fcf5f9de2984132265203b5c335b25727702ca77262ff622e136baa7362bf1da9858585604051610bb4939291906116b4565b60405180910390a25050507fffffffffffffffffffffffffffffffffffffffffffffffffffffffffffffffe00180517fd5a25ba2e97094ad7d83dc28a6572da797d6b3e7fc6663bd93efb789fc17e48982526101a0822091526040517f190100000000000000000000000000000000000000000000000000000000000081527f00000000000000000000000000000000000000000000000000000000000000006002820152602281019190915260429020919050565b6000610c9f7f000000000000000000000000000000000000000000000000000000000000000061066b368690038601866114ef565b7fffffffffffffffffffffffffffffffffffffffffffffffffffffffffffffffe0810180517fd5a25ba2e97094ad7d83dc28a6572da797d6b3e7fc6663bd93efb789fc17e48982526101a082209152604080517f190100000000000000000000000000000000000000000000000000000000000081527f0000000000000000000000000000000000000000000000000000000000000000600282015260228101929092526042909120600081815260208181529083902083518085019094525473ffffffffffffffffffffffffffffffffffffffff8082168086527401000000000000000000000000000000000000000090920463ffffffff1692850183905294955091934290911015911480610dcb5750815173ffffffffffffffffffffffffffffffffffffffff16155b80610df55750808015610df55750815173ffffffffffffffffffffffffffffffffffffffff163314155b15610e3d578415610e35576040517ff8cc70ce000000000000000000000000000000000000000000000000000000008152600481018490526024016106d6565b505050505050565b60008381526020818152604080832080547fffffffffffffffffffffffff00000000000000000000000000000000000000001673ffffffffffffffffffffffffffffffffffffffff1790558051603880825260608201909252918201818036833750505060a0860151909150610eb890829086903090611187565b8115610efa577fb8bad102ac8bbacfef31ff1c906ec6d951c230b4dce750bb0376b812ad35852a81604051610eed91906117ce565b60405180910390a1610f49565b3373ffffffffffffffffffffffffffffffffffffffff167f195271068a288191e4b265c641a56b9832919f69e9e7d6c2f31ba40278aeb85a82604051610f4091906117ce565b60405180910390a25b6040517f2479fb6e00000000000000000000000000000000000000000000000000000000815260009073ffffffffffffffffffffffffffffffffffffffff7f00000000000000000000000000000000000000000000000000000000000000001690632479fb6e90610fbe9085906004016117ce565b6020604051808303816000875af1158015610fdd573d6000803e3d6000fd5b505050506040513d601f19601f8201168201806040525081019061100191906117e1565b90506000808760600151838960e00151028161101f5761101f6117fa565b048860e00151039050808389606001510301915050804710156110e2576040517f2e1a7d4d00000000000000000000000000000000000000000000000000000000815247820360048201819052907f000000000000000000000000000000000000000000000000000000000000000073ffffffffffffffffffffffffffffffffffffffff1690632e1a7d4d90602401600060405180830381600087803b1580156110c857600080fd5b505af11580156110dc573d6000803e3d6000fd5b50505050505b845160405160009173ffffffffffffffffffffffffffffffffffffffff169083908381818185875af1925050503d806000811461113b576040519150601f19603f3d011682016040523d82523d6000602084013e611140565b606091505b505090508061117b576040517f6d963f8800000000000000000000000000000000000000000000000000000000815260040160405180910390fd5b50505050505050505050565b60388451146111f2576040517f08c379a000000000000000000000000000000000000000000000000000000000815260206004820152601960248201527f475076323a2075696420627566666572206f766572666c6f770000000000000060448201526064016106d6565b60388401526034830152602090910152565b7f4e487b7100000000000000000000000000000000000000000000000000000000600052604160045260246000fd5b604051610120810167ffffffffffffffff8111828210171561125757611257611204565b60405290565b604051601f82017fffffffffffffffffffffffffffffffffffffffffffffffffffffffffffffffe016810167ffffffffffffffff811182821017156112a4576112a4611204565b604052919050565b600080604083850312156112bf57600080fd5b8235915060208084013567ffffffffffffffff808211156112df57600080fd5b818601915086601f8301126112f357600080fd5b81358181111561130557611305611204565b611335847fffffffffffffffffffffffffffffffffffffffffffffffffffffffffffffffe0601f8401160161125d565b9150808252878482850101111561134b57600080fd5b80848401858401376000848284010152508093505050509250929050565b6000610120828403121561137c57600080fd5b50919050565b6000806020838503121561139557600080fd5b823567ffffffffffffffff808211156113ad57600080fd5b818501915085601f8301126113c157600080fd5b8135818111156113d057600080fd5b866020610120830285010111156113e657600080fd5b60209290920196919550909350505050565b60006020828403121561140a57600080fd5b5035919050565b7f4e487b7100000000000000000000000000000000000000000000000000000000600052601160045260246000fd5b8082018082111561041657610416611411565b803563ffffffff8116811461146757600080fd5b919050565b60006020828403121561147e57600080fd5b61148782611453565b9392505050565b8035600781900b811461146757600080fd5b6000602082840312156114b257600080fd5b6114878261148e565b803573ffffffffffffffffffffffffffffffffffffffff8116811461146757600080fd5b8035801515811461146757600080fd5b6000610120828403121561150257600080fd5b61150a611233565b611513836114bb565b8152611521602084016114bb565b602082015260408301356040820152606083013560608201526080830135608082015260a083013560a082015261155a60c08401611453565b60c082015261156b60e084016114df565b60e082015261010061157e81850161148e565b908201529392505050565b7f4e487b7100000000000000000000000000000000000000000000000000000000600052603260045260246000fd5b60007fffffffffffffffffffffffffffffffffffffffffffffffffffffffffffffffff82036115e9576115e9611411565b5060010190565b6000815180845260005b81811015611616576020818501810151868301820152016115fa565b5060006020828601015260207fffffffffffffffffffffffffffffffffffffffffffffffffffffffffffffffe0601f83011685010191505092915050565b600081516002811061168f577f4e487b7100000000000000000000000000000000000000000000000000000000600052602160045260246000fd5b808452506020820151604060208501526116ac60408501826115f0565b949350505050565b835173ffffffffffffffffffffffffffffffffffffffff16815260006101c060208601516116fa602085018273ffffffffffffffffffffffffffffffffffffffff169052565b506040860151611722604085018273ffffffffffffffffffffffffffffffffffffffff169052565b50606086015160608401526080860151608084015260a086015161174e60a085018263ffffffff169052565b5060c086015160c084015260e086015160e0840152610100808701518185015250610120808701516117838286018215159052565b50506101408681015190840152610160808701519084015261018083018190526117af81840186611654565b90508281036101a08401526117c481856115f0565b9695505050505050565b60208152600061148760208301846115f0565b6000602082840312156117f357600080fd5b5051919050565b7f4e487b7100000000000000000000000000000000000000000000000000000000600052601260045260246000fdfea26469706673582212208988ff8304818b2ccea19959df19f010e546c7186e33c8ff8c7489aff6a8f63b64736f6c63430008100033","linkReferences":{}},"methodIdentifiers":{"cowSwapDomainSeparatorPublic()":"68629bf4","cowSwapSettlement()":"ec30bb88","createOrder((address,address,uint256,uint256,bytes32,uint256,uint32,bool,int64))":"322bba21","invalidateOrder((address,address,uint256,uint256,bytes32,uint256,uint32,bool,int64))":"7bc41b96","invalidateOrdersIgnoringNotAllowed((address,address,uint256,uint256,bytes32,uint256,uint32,bool,int64)[])":"4cb76498","isValidSignature(bytes32,bytes)":"1626ba7e","orders(bytes32)":"9c3f1e90","unwrap(uint256)":"de0e9a3e","wrap(uint256)":"ea598cb0","wrapAll()":"4c84c1c8","wrappedNativeToken()":"17fcb39b"},"id":44}