{
  "abi": [
    {
      "inputs": [
        {
          "internalType": "contract ICoWSwapSettlement",
          "name": "settlementContractAddress",
          "type": "address"
        },
        {
          "internalType": "contract IWrappedNativeToken",
          "name": "wrappedNativeToken",
          "type": "address"
        }
      ],
      "stateMutability": "nonpayable",
      "type": "constructor"
    },
    {
      "inputs": [],
      "name": "EthTransferFailed",
      "type": "error"
    },
    {
      "inputs": [],
      "name": "IncorrectEthAmount",
      "type": "error"
    },
    {
      "inputs": [
        {
          "internalType": "bytes32",
          "name": "orderHash",
          "type": "bytes32"
        }
      ],
      "name": "NotAllowedToDeleteOrder",
      "type": "error"
    },
    {
      "inputs": [],
      "name": "NotAllowedZeroSellAmount",
      "type": "error"
    },
    {
      "inputs": [
        {
          "internalType": "bytes32",
          "name": "orderHash",
          "type": "bytes32"
        }
      ],
      "name": "OrderIsAlreadyOwned",
      "type": "error"
    },
    {
      "inputs": [],
      "name": "ReceiverMustBeSet",
      "type": "error"
    },
    {
      "anonymous": false,
      "inputs": [
        {
          "indexed": true,
          "internalType": "address",
          "name": "sender",
          "type": "address"
        },
        {
          "components": [
            {
              "internalType": "contract IERC20",
              "name": "sellToken",
              "type": "address"
            },
            {
              "internalType": "contract IERC20",
              "name": "buyToken",
              "type": "address"
            },
            {
              "internalType": "address",
              "name": "receiver",
              "type": "address"
            },
            {
              "internalType": "uint256",
              "name": "sellAmount",
              "type": "uint256"
            },
            {
              "internalType": "uint256",
              "name": "buyAmount",
              "type": "uint256"
            },
            {
              "internalType": "uint32",
              "name": "validTo",
              "type": "uint32"
            },
            {
              "internalType": "bytes32",
              "name": "appData",
              "type": "bytes32"
            },
            {
              "internalType": "uint256",
              "name": "feeAmount",
              "type": "uint256"
            },
            {
              "internalType": "bytes32",
              "name": "kind",
              "type": "bytes32"
            },
            {
              "internalType": "bool",
              "name": "partiallyFillable",
              "type": "bool"
            },
            {
              "internalType": "bytes32",
              "name": "sellTokenBalance",
              "type": "bytes32"
            },
            {
              "internalType": "bytes32",
              "name": "buyTokenBalance",
              "type": "bytes32"
            }
          ],
          "indexed": false,
          "internalType": "struct GPv2Order.Data",
          "name": "order",
          "type": "tuple"
        },
        {
          "components": [
            {
              "internalType": "enum ICoWSwapOnchainOrders.OnchainSigningScheme",
              "name": "scheme",
              "type": "uint8"
            },
            {
              "internalType": "bytes",
              "name": "data",
              "type": "bytes"
            }
          ],
          "indexed": false,
          "internalType": "struct ICoWSwapOnchainOrders.OnchainSignature",
          "name": "signature",
          "type": "tuple"
        },
        {
          "indexed": false,
          "internalType": "bytes",
          "name": "data",
          "type": "bytes"
        }
      ],
      "name": "OrderPlacement",
      "type": "event"
    },
    {
      "inputs": [],
      "name": "cowSwapDomainSeparatorPublic",
      "outputs": [
        {
          "internalType": "bytes32",
          "name": "",
          "type": "bytes32"
        }
      ],
      "stateMutability": "view",
      "type": "function"
    },
    {
      "inputs": [],
      "name": "cowSwapSettlement",
      "outputs": [
        {
          "internalType": "contract ICoWSwapSettlement",
          "name": "",
          "type": "address"
        }
      ],
      "stateMutability": "view",
      "type": "function"
    },
    {
      "inputs": [
        {
          "components": [
            {
              "internalType": "contract IERC20",
              "name": "buyToken",
              "type": "address"
            },
            {
              "internalType": "address",
              "name": "receiver",
              "type": "address"
            },
            {
              "internalType": "uint256",
              "name": "sellAmount",
              "type": "uint256"
            },
            {
              "internalType": "uint256",
              "name": "buyAmount",
              "type": "uint256"
            },
            {
              "internalType": "bytes32",
              "name": "appData",
              "type": "bytes32"
            },
            {
              "internalType": "uint256",
              "name": "feeAmount",
              "type": "uint256"
            },
            {
              "internalType": "uint32",
              "name": "validTo",
              "type": "uint32"
            },
            {
              "internalType": "bool",
              "name": "partiallyFillable",
              "type": "bool"
            },
            {
              "internalType": "int64",
              "name": "quoteId",
              "type": "int64"
            }
          ],
          "internalType": "struct EthFlowOrder.Data",
          "name": "order",
          "type": "tuple"
        }
      ],
      "name": "createOrder",
      "outputs": [
        {
          "internalType": "bytes32",
          "name": "orderHash",
          "type": "bytes32"
        }
      ],
      "stateMutability": "payable",
      "type": "function"
    },
    {
      "inputs": [
        {
          "components": [
            {
              "internalType": "contract IERC20",
              "name": "buyToken",
              "type": "address"
            },
            {
              "internalType": "address",
              "name": "receiver",
              "type": "address"
            },
            {
              "internalType": "uint256",
              "name": "sellAmount",
              "type": "uint256"
            },
            {
              "internalType": "uint256",
              "name": "buyAmount",
              "type": "uint256"
            },
            {
              "internalType": "bytes32",
              "name": "appData",
              "type": "bytes32"
            },
            {
              "internalType": "uint256",
              "name": "feeAmount",
              "type": "uint256"
            },
            {
              "internalType": "uint32",
              "name": "validTo",
              "type": "uint32"
            },
            {
              "internalType": "bool",
              "name": "partiallyFillable",
              "type": "bool"
            },
            {
              "internalType": "int64",
              "name": "quoteId",
              "type": "int64"
            }
          ],
          "internalType": "struct EthFlowOrder.Data",
          "name": "order",
          "type": "tuple"
        }
      ],
      "name": "deleteOrder",
      "outputs": [],
      "stateMutability": "nonpayable",
      "type": "function"
    },
    {
      "inputs": [
        {
          "components": [
            {
              "internalType": "contract IERC20",
              "name": "buyToken",
              "type": "address"
            },
            {
              "internalType": "address",
              "name": "receiver",
              "type": "address"
            },
            {
              "internalType": "uint256",
              "name": "sellAmount",
              "type": "uint256"
            },
            {
              "internalType": "uint256",
              "name": "buyAmount",
              "type": "uint256"
            },
            {
              "internalType": "bytes32",
              "name": "appData",
              "type": "bytes32"
            },
            {
              "internalType": "uint256",
              "name": "feeAmount",
              "type": "uint256"
            },
            {
              "internalType": "uint32",
              "name": "validTo",
              "type": "uint32"
            },
            {
              "internalType": "bool",
              "name": "partiallyFillable",
              "type": "bool"
            },
            {
              "internalType": "int64",
              "name": "quoteId",
              "type": "int64"
            }
          ],
          "internalType": "struct EthFlowOrder.Data[]",
          "name": "orderArray",
          "type": "tuple[]"
        }
      ],
      "name": "deleteOrders",
      "outputs": [],
      "stateMutability": "nonpayable",
      "type": "function"
    },
    {
      "inputs": [
        {
          "internalType": "bytes32",
          "name": "orderHash",
          "type": "bytes32"
        },
        {
          "internalType": "bytes",
          "name": "",
          "type": "bytes"
        }
      ],
      "name": "isValidSignature",
      "outputs": [
        {
          "internalType": "bytes4",
          "name": "",
          "type": "bytes4"
        }
      ],
      "stateMutability": "view",
      "type": "function"
    },
    {
      "inputs": [
        {
          "internalType": "bytes32",
          "name": "",
          "type": "bytes32"
        }
      ],
      "name": "orders",
      "outputs": [
        {
          "internalType": "address",
          "name": "owner",
          "type": "address"
        },
        {
          "internalType": "uint32",
          "name": "validTo",
          "type": "uint32"
        }
      ],
      "stateMutability": "view",
      "type": "function"
    },
    {
      "inputs": [
        {
          "internalType": "uint256",
          "name": "amount",
          "type": "uint256"
        }
      ],
      "name": "unwrap",
      "outputs": [],
      "stateMutability": "nonpayable",
      "type": "function"
    },
    {
      "inputs": [
        {
          "internalType": "uint256",
          "name": "amount",
          "type": "uint256"
        }
      ],
      "name": "wrap",
      "outputs": [],
      "stateMutability": "nonpayable",
      "type": "function"
    },
    {
      "inputs": [],
      "name": "wrapAll",
      "outputs": [],
      "stateMutability": "nonpayable",
      "type": "function"
    },
    {
      "inputs": [],
      "name": "wrappedNativeToken",
      "outputs": [
        {
          "internalType": "contract IWrappedNativeToken",
          "name": "",
          "type": "address"
        }
      ],
      "stateMutability": "view",
      "type": "function"
    },
    {
      "stateMutability": "payable",
      "type": "receive"
    }
  ],
  "bytecode": {
    "object": "0x60e06040523480156200001157600080fd5b5060405162001a7b38038062001a7b833981016040819052620000349162000222565b8181816200004d816200015660201b62000cfe1760201c565b608052506001600160a01b0380831660a081905290821660c081905260408051634daa966160e11b81529051919263095ea7b3929091639b552cc291600480830192602092919082900301816000875af1158015620000b0573d6000803e3d6000fd5b505050506040513d601f19601f82011682018060405250810190620000d6919062000261565b6040516001600160e01b031960e084901b1681526001600160a01b03909116600482015260001960248201526044016020604051808303816000875af115801562000125573d6000803e3d6000fd5b505050506040513d601f19601f820116820180604052508101906200014b919062000288565b5050505050620002ac565b604080517f8b73c3c69bb8fe3d512ecc4cf759cc79239f7b179b0ffacaa9a75d522b39400f60208201527f6c85c0337eba1661327f94f3bf46c8a7f9311a563f4d5c948362567f5d8ed60c918101919091527ff9446b8e937d86f0bc87cac73923491692b123ca5f8761908494703758206adf606082015246608082018190526001600160a01b03831660a083015260009160c00160405160208183030381529060405280519060200120915050919050565b6001600160a01b03811681146200021f57600080fd5b50565b600080604083850312156200023657600080fd5b8251620002438162000209565b6020840151909250620002568162000209565b809150509250929050565b6000602082840312156200027457600080fd5b8151620002818162000209565b9392505050565b6000602082840312156200029b57600080fd5b815180151581146200028157600080fd5b60805160a05160c0516117676200031460003960008181610134015281816105ee0152818161076401528181610acb01528181610c100152610c8801526000818161030c01526109e50152600081816101e20152818161080a015261105a01526117676000f3fe6080604052600436106100c05760003560e01c806368629bf411610074578063de0e9a3e1161004e578063de0e9a3e146102ba578063ea598cb0146102da578063ec30bb88146102fa57600080fd5b806368629bf4146101d35780639c3f1e9014610206578063b52e0d641461029a57600080fd5b8063322bba21116100a5578063322bba211461017b5780634b5b71411461019c5780634c84c1c8146101be57600080fd5b80631626ba7e146100cc57806317fcb39b1461012257600080fd5b366100c757005b600080fd5b3480156100d857600080fd5b506100ec6100e73660046111b4565b61032e565b6040517fffffffff0000000000000000000000000000000000000000000000000000000090911681526020015b60405180910390f35b34801561012e57600080fd5b506101567f000000000000000000000000000000000000000000000000000000000000000081565b60405173ffffffffffffffffffffffffffffffffffffffff9091168152602001610119565b61018e610189366004611271565b61041c565b604051908152602001610119565b3480156101a857600080fd5b506101bc6101b736600461128a565b61070f565b005b3480156101ca57600080fd5b506101bc610752565b3480156101df57600080fd5b507f000000000000000000000000000000000000000000000000000000000000000061018e565b34801561021257600080fd5b50610269610221366004611300565b60006020819052908152604090205473ffffffffffffffffffffffffffffffffffffffff81169074010000000000000000000000000000000000000000900463ffffffff1682565b6040805173ffffffffffffffffffffffffffffffffffffffff909316835263ffffffff909116602083015201610119565b3480156102a657600080fd5b506101bc6102b5366004611271565b61075d565b3480156102c657600080fd5b506101bc6102d5366004611300565b610be1565b3480156102e657600080fd5b506101bc6102f5366004611300565b610c84565b34801561030657600080fd5b506101567f000000000000000000000000000000000000000000000000000000000000000081565b60008281526020818152604080832081518083019092525473ffffffffffffffffffffffffffffffffffffffff81168083527401000000000000000000000000000000000000000090910463ffffffff169282019290925290158015906103ad5750805173ffffffffffffffffffffffffffffffffffffffff90811614155b80156103c3575042816020015163ffffffff1610155b156103f157507f1626ba7e000000000000000000000000000000000000000000000000000000009050610416565b507fffffffff0000000000000000000000000000000000000000000000000000000090505b92915050565b600061043060a08301356040840135611348565b3414610468576040517f8b6ebb4d00000000000000000000000000000000000000000000000000000000815260040160405180910390fd5b81604001356000036104a6576040517feaec5c9d00000000000000000000000000000000000000000000000000000000815260040160405180910390fd5b60408051808201909152338152600090602081016104ca60e0860160c08701611374565b63ffffffff169052604080518082019091529091506000908082815260200130604051602001610525919060609190911b7fffffffffffffffffffffffffffffffffffffffff00000000000000000000000016815260140190565b604080517fffffffffffffffffffffffffffffffffffffffffffffffffffffffffffffffe081840301815291905290529050600061056b610120860161010087016113a8565b6020808501516040516105b293920160c09290921b825260e01b7fffffffff00000000000000000000000000000000000000000000000000000000166008820152600c0190565b604080517fffffffffffffffffffffffffffffffffffffffffffffffffffffffffffffffe08184030181529190528351909150610629906106227f000000000000000000000000000000000000000000000000000000000000000061061c368a90038a018a6113f7565b90610dbe565b8484610f8d565b60008181526020819052604090205490945073ffffffffffffffffffffffffffffffffffffffff1615610690576040517f56a1d2b2000000000000000000000000000000000000000000000000000000008152600481018590526024015b60405180910390fd5b505060008281526020818152604090912082518154929093015163ffffffff1674010000000000000000000000000000000000000000027fffffffffffffffff00000000000000000000000000000000000000000000000090921673ffffffffffffffffffffffffffffffffffffffff90931692909217179055919050565b60005b8181101561074d5761073b83838381811061072f5761072f611491565b9050610120020161075d565b80610745816114c0565b915050610712565b505050565b61075b47610c84565b565b60006107927f000000000000000000000000000000000000000000000000000000000000000061061c368590038501856113f7565b7fffffffffffffffffffffffffffffffffffffffffffffffffffffffffffffffe0810180517fd5a25ba2e97094ad7d83dc28a6572da797d6b3e7fc6663bd93efb789fc17e48982526101a082209152604080517f190100000000000000000000000000000000000000000000000000000000000081527f0000000000000000000000000000000000000000000000000000000000000000600282015260228101929092526042909120600081815260208181529083902083518085019094525473ffffffffffffffffffffffffffffffffffffffff8082168086527401000000000000000000000000000000000000000090920463ffffffff1692850192909252939450909214806108b95750805173ffffffffffffffffffffffffffffffffffffffff16155b806108f0575042816020015163ffffffff16101580156108f05750805173ffffffffffffffffffffffffffffffffffffffff163314155b1561092a576040517f96d4fcee00000000000000000000000000000000000000000000000000000000815260048101839052602401610687565b60008281526020818152604080832080547fffffffffffffffffffffffff00000000000000000000000000000000000000001673ffffffffffffffffffffffffffffffffffffffff1790558051603880825260608201909252918201818036833750505060a08501519091506109a59082908590309061108f565b6040517f2479fb6e00000000000000000000000000000000000000000000000000000000815260009073ffffffffffffffffffffffffffffffffffffffff7f00000000000000000000000000000000000000000000000000000000000000001690632479fb6e90610a1a90859060040161155c565b6020604051808303816000875af1158015610a39573d6000803e3d6000fd5b505050506040513d601f19601f82011682018060405250810190610a5d919061156f565b90506000808660600151838860e001510281610a7b57610a7b611588565b048760e0015103905080838860600151030191505080471015610b3e576040517f2e1a7d4d00000000000000000000000000000000000000000000000000000000815247820360048201819052907f000000000000000000000000000000000000000000000000000000000000000073ffffffffffffffffffffffffffffffffffffffff1690632e1a7d4d90602401600060405180830381600087803b158015610b2457600080fd5b505af1158015610b38573d6000803e3d6000fd5b50505050505b835160405160009173ffffffffffffffffffffffffffffffffffffffff169083908381818185875af1925050503d8060008114610b97576040519150601f19603f3d011682016040523d82523d6000602084013e610b9c565b606091505b5050905080610bd7576040517f6d963f8800000000000000000000000000000000000000000000000000000000815260040160405180910390fd5b5050505050505050565b6040517f2e1a7d4d000000000000000000000000000000000000000000000000000000008152600481018290527f000000000000000000000000000000000000000000000000000000000000000073ffffffffffffffffffffffffffffffffffffffff1690632e1a7d4d90602401600060405180830381600087803b158015610c6957600080fd5b505af1158015610c7d573d6000803e3d6000fd5b5050505050565b60007f000000000000000000000000000000000000000000000000000000000000000073ffffffffffffffffffffffffffffffffffffffff168260405160006040518083038185875af1925050503d8060008114610c7d576040519150601f19603f3d011682016040523d82523d6000602084013e610c7d565b604080517f8b73c3c69bb8fe3d512ecc4cf759cc79239f7b179b0ffacaa9a75d522b39400f60208201527f6c85c0337eba1661327f94f3bf46c8a7f9311a563f4d5c948362567f5d8ed60c918101919091527ff9446b8e937d86f0bc87cac73923491692b123ca5f8761908494703758206adf6060820152466080820181905273ffffffffffffffffffffffffffffffffffffffff831660a083015260009160c00160405160208183030381529060405280519060200120915050919050565b604080516101808101825260008082526020808301829052928201819052606082018190526080820181905260a0820181905260c0820181905260e082018190526101008201819052610120820181905261014082018190526101608201529083015173ffffffffffffffffffffffffffffffffffffffff16610e6d576040517fefc9ccdf00000000000000000000000000000000000000000000000000000000815260040160405180910390fd5b6040518061018001604052808373ffffffffffffffffffffffffffffffffffffffff168152602001846000015173ffffffffffffffffffffffffffffffffffffffff168152602001846020015173ffffffffffffffffffffffffffffffffffffffff168152602001846040015181526020018460600151815260200163ffffffff80168152602001846080015181526020018460a0015181526020017ff3b277728b3fee749481eb3e0b3b48980dbbab78658fc419025cb16eee34677581526020018460e00151151581526020017f5a28e9363bb942b639270062aa6bb295f434bcdfc42c97267bf003f272060dc981526020017f5a28e9363bb942b639270062aa6bb295f434bcdfc42c97267bf003f272060dc9815250905092915050565b60008473ffffffffffffffffffffffffffffffffffffffff167fcf5f9de2984132265203b5c335b25727702ca77262ff622e136baa7362bf1da9858585604051610fd993929190611617565b60405180910390a25050507fffffffffffffffffffffffffffffffffffffffffffffffffffffffffffffffe00180517fd5a25ba2e97094ad7d83dc28a6572da797d6b3e7fc6663bd93efb789fc17e48982526101a0822091526040517f190100000000000000000000000000000000000000000000000000000000000081527f00000000000000000000000000000000000000000000000000000000000000006002820152602281019190915260429020919050565b60388451146110fa576040517f08c379a000000000000000000000000000000000000000000000000000000000815260206004820152601960248201527f475076323a2075696420627566666572206f766572666c6f77000000000000006044820152606401610687565b60388401526034830152602090910152565b7f4e487b7100000000000000000000000000000000000000000000000000000000600052604160045260246000fd5b604051610120810167ffffffffffffffff8111828210171561115f5761115f61110c565b60405290565b604051601f82017fffffffffffffffffffffffffffffffffffffffffffffffffffffffffffffffe016810167ffffffffffffffff811182821017156111ac576111ac61110c565b604052919050565b600080604083850312156111c757600080fd5b8235915060208084013567ffffffffffffffff808211156111e757600080fd5b818601915086601f8301126111fb57600080fd5b81358181111561120d5761120d61110c565b61123d847fffffffffffffffffffffffffffffffffffffffffffffffffffffffffffffffe0601f84011601611165565b9150808252878482850101111561125357600080fd5b80848401858401376000848284010152508093505050509250929050565b6000610120828403121561128457600080fd5b50919050565b6000806020838503121561129d57600080fd5b823567ffffffffffffffff808211156112b557600080fd5b818501915085601f8301126112c957600080fd5b8135818111156112d857600080fd5b866020610120830285010111156112ee57600080fd5b60209290920196919550909350505050565b60006020828403121561131257600080fd5b5035919050565b7f4e487b7100000000000000000000000000000000000000000000000000000000600052601160045260246000fd5b8082018082111561041657610416611319565b803563ffffffff8116811461136f57600080fd5b919050565b60006020828403121561138657600080fd5b61138f8261135b565b9392505050565b8035600781900b811461136f57600080fd5b6000602082840312156113ba57600080fd5b61138f82611396565b803573ffffffffffffffffffffffffffffffffffffffff8116811461136f57600080fd5b8035801515811461136f57600080fd5b6000610120828403121561140a57600080fd5b61141261113b565b61141b836113c3565b8152611429602084016113c3565b602082015260408301356040820152606083013560608201526080830135608082015260a083013560a082015261146260c0840161135b565b60c082015261147360e084016113e7565b60e0820152610100611486818501611396565b908201529392505050565b7f4e487b7100000000000000000000000000000000000000000000000000000000600052603260045260246000fd5b60007fffffffffffffffffffffffffffffffffffffffffffffffffffffffffffffffff82036114f1576114f1611319565b5060010190565b6000815180845260005b8181101561151e57602081850181015186830182015201611502565b5060006020828601015260207fffffffffffffffffffffffffffffffffffffffffffffffffffffffffffffffe0601f83011685010191505092915050565b60208152600061138f60208301846114f8565b60006020828403121561158157600080fd5b5051919050565b7f4e487b7100000000000000000000000000000000000000000000000000000000600052601260045260246000fd5b60008151600281106115f2577f4e487b7100000000000000000000000000000000000000000000000000000000600052602160045260246000fd5b8084525060208201516040602085015261160f60408501826114f8565b949350505050565b835173ffffffffffffffffffffffffffffffffffffffff16815260006101c0602086015161165d602085018273ffffffffffffffffffffffffffffffffffffffff169052565b506040860151611685604085018273ffffffffffffffffffffffffffffffffffffffff169052565b50606086015160608401526080860151608084015260a08601516116b160a085018263ffffffff169052565b5060c086015160c084015260e086015160e0840152610100808701518185015250610120808701516116e68286018215159052565b5050610140868101519084015261016080870151908401526101808301819052611712818401866115b7565b90508281036101a084015261172781856114f8565b969550505050505056fea2646970667358221220cc3e9bee9f87d36c0886e309ab4681c8081c69c7a5247333400ba09e4c845d7664736f6c63430008100033",
    "linkReferences": {}
  },
  "methodIdentifiers": {
    "cowSwapDomainSeparatorPublic()": "68629bf4",
    "cowSwapSettlement()": "ec30bb88",
    "createOrder((address,address,uint256,uint256,bytes32,uint256,uint32,bool,int64))": "322bba21",
    "deleteOrder((address,address,uint256,uint256,bytes32,uint256,uint32,bool,int64))": "b52e0d64",
    "deleteOrders((address,address,uint256,uint256,bytes32,uint256,uint32,bool,int64)[])": "4b5b7141",
    "isValidSignature(bytes32,bytes)": "1626ba7e",
    "orders(bytes32)": "9c3f1e90",
    "unwrap(uint256)": "de0e9a3e",
    "wrap(uint256)": "ea598cb0",
    "wrapAll()": "4c84c1c8",
    "wrappedNativeToken()": "17fcb39b"
  },
  "id": 44
}