{
  "abi": [
    {
      "inputs": [
        {
          "internalType": "contract ICoWSwapSettlement",
          "name": "settlementContractAddress",
          "type": "address"
        },
        {
          "internalType": "contract IERC20",
          "name": "weth",
          "type": "address"
        }
      ],
      "stateMutability": "nonpayable",
      "type": "constructor"
    },
    {
      "inputs": [],
      "name": "EthTransferFailed",
      "type": "error"
    },
    {
      "inputs": [],
      "name": "IncorrectEthAmount",
      "type": "error"
    },
    {
      "inputs": [
        {
          "internalType": "bytes32",
          "name": "orderHash",
          "type": "bytes32"
        }
      ],
      "name": "NotAllowedToDeleteOrder",
      "type": "error"
    },
    {
      "inputs": [
        {
          "internalType": "bytes32",
          "name": "orderHash",
          "type": "bytes32"
        }
      ],
      "name": "OrderIsAlreadyOwned",
      "type": "error"
    },
    {
      "inputs": [],
      "name": "ReceiverMustBeSet",
      "type": "error"
    },
    {
      "anonymous": false,
      "inputs": [
        {
          "indexed": true,
          "internalType": "address",
          "name": "sender",
          "type": "address"
        },
        {
          "components": [
            {
              "internalType": "contract IERC20",
              "name": "sellToken",
              "type": "address"
            },
            {
              "internalType": "contract IERC20",
              "name": "buyToken",
              "type": "address"
            },
            {
              "internalType": "address",
              "name": "receiver",
              "type": "address"
            },
            {
              "internalType": "uint256",
              "name": "sellAmount",
              "type": "uint256"
            },
            {
              "internalType": "uint256",
              "name": "buyAmount",
              "type": "uint256"
            },
            {
              "internalType": "uint32",
              "name": "validTo",
              "type": "uint32"
            },
            {
              "internalType": "bytes32",
              "name": "appData",
              "type": "bytes32"
            },
            {
              "internalType": "uint256",
              "name": "feeAmount",
              "type": "uint256"
            },
            {
              "internalType": "bytes32",
              "name": "kind",
              "type": "bytes32"
            },
            {
              "internalType": "bool",
              "name": "partiallyFillable",
              "type": "bool"
            },
            {
              "internalType": "bytes32",
              "name": "sellTokenBalance",
              "type": "bytes32"
            },
            {
              "internalType": "bytes32",
              "name": "buyTokenBalance",
              "type": "bytes32"
            }
          ],
          "indexed": false,
          "internalType": "struct GPv2Order.Data",
          "name": "order",
          "type": "tuple"
        },
        {
          "components": [
            {
              "internalType": "enum ICoWSwapOnchainOrders.OnchainSigningScheme",
              "name": "scheme",
              "type": "uint8"
            },
            {
              "internalType": "bytes",
              "name": "data",
              "type": "bytes"
            }
          ],
          "indexed": false,
          "internalType": "struct ICoWSwapOnchainOrders.OnchainSignature",
          "name": "signature",
          "type": "tuple"
        },
        {
          "indexed": false,
          "internalType": "bytes",
          "name": "data",
          "type": "bytes"
        }
      ],
      "name": "OrderPlacement",
      "type": "event"
    },
    {
      "inputs": [],
      "name": "cowSwapDomainSeparatorPublic",
      "outputs": [
        {
          "internalType": "bytes32",
          "name": "",
          "type": "bytes32"
        }
      ],
      "stateMutability": "view",
      "type": "function"
    },
    {
      "inputs": [],
      "name": "cowSwapSettlement",
      "outputs": [
        {
          "internalType": "contract ICoWSwapSettlement",
          "name": "",
          "type": "address"
        }
      ],
      "stateMutability": "view",
      "type": "function"
    },
    {
      "inputs": [
        {
          "components": [
            {
              "internalType": "contract IERC20",
              "name": "buyToken",
              "type": "address"
            },
            {
              "internalType": "address",
              "name": "receiver",
              "type": "address"
            },
            {
              "internalType": "uint256",
              "name": "sellAmount",
              "type": "uint256"
            },
            {
              "internalType": "uint256",
              "name": "buyAmount",
              "type": "uint256"
            },
            {
              "internalType": "bytes32",
              "name": "appData",
              "type": "bytes32"
            },
            {
              "internalType": "uint256",
              "name": "feeAmount",
              "type": "uint256"
            },
            {
              "internalType": "uint32",
              "name": "validTo",
              "type": "uint32"
            },
            {
              "internalType": "bool",
              "name": "partiallyFillable",
              "type": "bool"
            },
            {
              "internalType": "int64",
              "name": "quoteId",
              "type": "int64"
            }
          ],
          "internalType": "struct EthFlowOrder.Data",
          "name": "order",
          "type": "tuple"
        }
      ],
      "name": "createOrder",
      "outputs": [
        {
          "internalType": "bytes32",
          "name": "orderHash",
          "type": "bytes32"
        }
      ],
      "stateMutability": "payable",
      "type": "function"
    },
    {
      "inputs": [
        {
          "components": [
            {
              "internalType": "contract IERC20",
              "name": "buyToken",
              "type": "address"
            },
            {
              "internalType": "address",
              "name": "receiver",
              "type": "address"
            },
            {
              "internalType": "uint256",
              "name": "sellAmount",
              "type": "uint256"
            },
            {
              "internalType": "uint256",
              "name": "buyAmount",
              "type": "uint256"
            },
            {
              "internalType": "bytes32",
              "name": "appData",
              "type": "bytes32"
            },
            {
              "internalType": "uint256",
              "name": "feeAmount",
              "type": "uint256"
            },
            {
              "internalType": "uint32",
              "name": "validTo",
              "type": "uint32"
            },
            {
              "internalType": "bool",
              "name": "partiallyFillable",
              "type": "bool"
            },
            {
              "internalType": "int64",
              "name": "quoteId",
              "type": "int64"
            }
          ],
          "internalType": "struct EthFlowOrder.Data",
          "name": "order",
          "type": "tuple"
        }
      ],
      "name": "deleteOrder",
      "outputs": [],
      "stateMutability": "nonpayable",
      "type": "function"
    },
    {
      "inputs": [
        {
          "internalType": "bytes32",
          "name": "orderHash",
          "type": "bytes32"
        },
        {
          "internalType": "bytes",
          "name": "",
          "type": "bytes"
        }
      ],
      "name": "isValidSignature",
      "outputs": [
        {
          "internalType": "bytes4",
          "name": "",
          "type": "bytes4"
        }
      ],
      "stateMutability": "view",
      "type": "function"
    },
    {
      "inputs": [
        {
          "internalType": "bytes32",
          "name": "",
          "type": "bytes32"
        }
      ],
      "name": "orders",
      "outputs": [
        {
          "internalType": "address",
          "name": "owner",
          "type": "address"
        },
        {
          "internalType": "uint32",
          "name": "validTo",
          "type": "uint32"
        }
      ],
      "stateMutability": "view",
      "type": "function"
    },
    {
      "inputs": [],
      "name": "wrappedNativeToken",
      "outputs": [
        {
          "internalType": "contract IERC20",
          "name": "",
          "type": "address"
        }
      ],
      "stateMutability": "view",
      "type": "function"
    }
  ],
  "bytecode": {
    "object": "0x60e06040523480156200001157600080fd5b50604051620015c3380380620015c383398101604081905262000034916200013d565b8181816200004d816200007160201b62000aa01760201c565b6080525060016000556001600160a01b0391821660a0521660c052506200017c9050565b604080517f8b73c3c69bb8fe3d512ecc4cf759cc79239f7b179b0ffacaa9a75d522b39400f60208201527f6c85c0337eba1661327f94f3bf46c8a7f9311a563f4d5c948362567f5d8ed60c918101919091527ff9446b8e937d86f0bc87cac73923491692b123ca5f8761908494703758206adf606082015246608082018190526001600160a01b03831660a083015260009160c00160405160208183030381529060405280519060200120915050919050565b6001600160a01b03811681146200013a57600080fd5b50565b600080604083850312156200015157600080fd5b82516200015e8162000124565b6020840151909250620001718162000124565b809150509250929050565b60805160a05160c0516113f5620001ce6000396000818160dd0152818161054f01526106e6015260008181610240015261096b0152600081816101540152818161078c0152610dfc01526113f56000f3fe6080604052600436106100705760003560e01c806368629bf41161004e57806368629bf4146101455780639c3f1e9014610178578063b52e0d641461020c578063ec30bb881461022e57600080fd5b80631626ba7e1461007557806317fcb39b146100cb578063322bba2114610124575b600080fd5b34801561008157600080fd5b50610095610090366004610f56565b610262565b6040517fffffffff0000000000000000000000000000000000000000000000000000000090911681526020015b60405180910390f35b3480156100d757600080fd5b506100ff7f000000000000000000000000000000000000000000000000000000000000000081565b60405173ffffffffffffffffffffffffffffffffffffffff90911681526020016100c2565b610137610132366004611013565b610352565b6040519081526020016100c2565b34801561015157600080fd5b507f0000000000000000000000000000000000000000000000000000000000000000610137565b34801561018457600080fd5b506101db61019336600461102c565b60016020526000908152604090205473ffffffffffffffffffffffffffffffffffffffff81169074010000000000000000000000000000000000000000900463ffffffff1682565b6040805173ffffffffffffffffffffffffffffffffffffffff909316835263ffffffff9091166020830152016100c2565b34801561021857600080fd5b5061022c610227366004611013565b61066e565b005b34801561023a57600080fd5b506100ff7f000000000000000000000000000000000000000000000000000000000000000081565b600082815260016020908152604080832081518083019092525473ffffffffffffffffffffffffffffffffffffffff81168083527401000000000000000000000000000000000000000090910463ffffffff169282019290925290158015906102e35750805173ffffffffffffffffffffffffffffffffffffffff90811614155b80156102f9575042816020015163ffffffff1610155b1561032757507f1626ba7e00000000000000000000000000000000000000000000000000000000905061034c565b507fffffffff0000000000000000000000000000000000000000000000000000000090505b92915050565b60006002600054036103c5576040517f08c379a000000000000000000000000000000000000000000000000000000000815260206004820152601f60248201527f5265656e7472616e637947756172643a207265656e7472616e742063616c6c0060448201526064015b60405180910390fd5b600260005534604083013514610407576040517f8b6ebb4d00000000000000000000000000000000000000000000000000000000815260040160405180910390fd5b604080518082019091523381526000906020810161042b60e0860160c0870161105e565b63ffffffff169052604080518082019091529091506000908082815260200130604051602001610486919060609190911b7fffffffffffffffffffffffffffffffffffffffff00000000000000000000000016815260140190565b604080517fffffffffffffffffffffffffffffffffffffffffffffffffffffffffffffffe08184030181529190529052905060006104cc61012086016101008701611092565b60208085015160405161051393920160c09290921b825260e01b7fffffffff00000000000000000000000000000000000000000000000000000000166008820152600c0190565b604080517fffffffffffffffffffffffffffffffffffffffffffffffffffffffffffffffe0818403018152919052835190915061058a906105837f000000000000000000000000000000000000000000000000000000000000000061057d368a90038a018a6110e1565b90610b60565b8484610d2f565b60008181526001602052604090205490945073ffffffffffffffffffffffffffffffffffffffff16156105ec576040517f56a1d2b2000000000000000000000000000000000000000000000000000000008152600481018590526024016103bc565b50506000828152600160208181526040832084518154929095015163ffffffff1674010000000000000000000000000000000000000000027fffffffffffffffff00000000000000000000000000000000000000000000000090921673ffffffffffffffffffffffffffffffffffffffff909516949094171790925555919050565b6002600054036106da576040517f08c379a000000000000000000000000000000000000000000000000000000000815260206004820152601f60248201527f5265656e7472616e637947756172643a207265656e7472616e742063616c6c0060448201526064016103bc565b600260009081556107147f000000000000000000000000000000000000000000000000000000000000000061057d368590038501856110e1565b7fffffffffffffffffffffffffffffffffffffffffffffffffffffffffffffffe0810180517fd5a25ba2e97094ad7d83dc28a6572da797d6b3e7fc6663bd93efb789fc17e48982526101a082209152604080517f190100000000000000000000000000000000000000000000000000000000000081527f00000000000000000000000000000000000000000000000000000000000000006002820152602281019290925260429091206000818152600160209081529083902083518085019094525473ffffffffffffffffffffffffffffffffffffffff8082168086527401000000000000000000000000000000000000000090920463ffffffff16928501929092529394509092148061083d5750805173ffffffffffffffffffffffffffffffffffffffff16155b80610874575042816020015163ffffffff16101580156108745750805173ffffffffffffffffffffffffffffffffffffffff163314155b156108ae576040517f96d4fcee000000000000000000000000000000000000000000000000000000008152600481018390526024016103bc565b600082815260016020908152604080832080547fffffffffffffffffffffffff00000000000000000000000000000000000000001673ffffffffffffffffffffffffffffffffffffffff1790558051603880825260608201909252918201818036833750505060a085015190915061092b90829085903090610e31565b6040517f2479fb6e00000000000000000000000000000000000000000000000000000000815260009073ffffffffffffffffffffffffffffffffffffffff7f00000000000000000000000000000000000000000000000000000000000000001690632479fb6e906109a09085906004016111df565b6020604051808303816000875af11580156109bf573d6000803e3d6000fd5b505050506040513d601f19601f820116820180604052508101906109e391906111f2565b85606001516109f2919061120b565b90506000836000015173ffffffffffffffffffffffffffffffffffffffff168260405160006040518083038185875af1925050503d8060008114610a52576040519150601f19603f3d011682016040523d82523d6000602084013e610a57565b606091505b5050905080610a92576040517f6d963f8800000000000000000000000000000000000000000000000000000000815260040160405180910390fd5b505060016000555050505050565b604080517f8b73c3c69bb8fe3d512ecc4cf759cc79239f7b179b0ffacaa9a75d522b39400f60208201527f6c85c0337eba1661327f94f3bf46c8a7f9311a563f4d5c948362567f5d8ed60c918101919091527ff9446b8e937d86f0bc87cac73923491692b123ca5f8761908494703758206adf6060820152466080820181905273ffffffffffffffffffffffffffffffffffffffff831660a083015260009160c00160405160208183030381529060405280519060200120915050919050565b604080516101808101825260008082526020808301829052928201819052606082018190526080820181905260a0820181905260c0820181905260e082018190526101008201819052610120820181905261014082018190526101608201529083015173ffffffffffffffffffffffffffffffffffffffff16610c0f576040517fefc9ccdf00000000000000000000000000000000000000000000000000000000815260040160405180910390fd5b6040518061018001604052808373ffffffffffffffffffffffffffffffffffffffff168152602001846000015173ffffffffffffffffffffffffffffffffffffffff168152602001846020015173ffffffffffffffffffffffffffffffffffffffff168152602001846040015181526020018460600151815260200163ffffffff80168152602001846080015181526020018460a0015181526020017ff3b277728b3fee749481eb3e0b3b48980dbbab78658fc419025cb16eee34677581526020018460e00151151581526020017f5a28e9363bb942b639270062aa6bb295f434bcdfc42c97267bf003f272060dc981526020017f5a28e9363bb942b639270062aa6bb295f434bcdfc42c97267bf003f272060dc9815250905092915050565b60008473ffffffffffffffffffffffffffffffffffffffff167fcf5f9de2984132265203b5c335b25727702ca77262ff622e136baa7362bf1da9858585604051610d7b939291906112a5565b60405180910390a25050507fffffffffffffffffffffffffffffffffffffffffffffffffffffffffffffffe00180517fd5a25ba2e97094ad7d83dc28a6572da797d6b3e7fc6663bd93efb789fc17e48982526101a0822091526040517f190100000000000000000000000000000000000000000000000000000000000081527f00000000000000000000000000000000000000000000000000000000000000006002820152602281019190915260429020919050565b6038845114610e9c576040517f08c379a000000000000000000000000000000000000000000000000000000000815260206004820152601960248201527f475076323a2075696420627566666572206f766572666c6f770000000000000060448201526064016103bc565b60388401526034830152602090910152565b7f4e487b7100000000000000000000000000000000000000000000000000000000600052604160045260246000fd5b604051610120810167ffffffffffffffff81118282101715610f0157610f01610eae565b60405290565b604051601f82017fffffffffffffffffffffffffffffffffffffffffffffffffffffffffffffffe016810167ffffffffffffffff81118282101715610f4e57610f4e610eae565b604052919050565b60008060408385031215610f6957600080fd5b8235915060208084013567ffffffffffffffff80821115610f8957600080fd5b818601915086601f830112610f9d57600080fd5b813581811115610faf57610faf610eae565b610fdf847fffffffffffffffffffffffffffffffffffffffffffffffffffffffffffffffe0601f84011601610f07565b91508082528784828501011115610ff557600080fd5b80848401858401376000848284010152508093505050509250929050565b6000610120828403121561102657600080fd5b50919050565b60006020828403121561103e57600080fd5b5035919050565b803563ffffffff8116811461105957600080fd5b919050565b60006020828403121561107057600080fd5b61107982611045565b9392505050565b8035600781900b811461105957600080fd5b6000602082840312156110a457600080fd5b61107982611080565b803573ffffffffffffffffffffffffffffffffffffffff8116811461105957600080fd5b8035801515811461105957600080fd5b600061012082840312156110f457600080fd5b6110fc610edd565b611105836110ad565b8152611113602084016110ad565b602082015260408301356040820152606083013560608201526080830135608082015260a083013560a082015261114c60c08401611045565b60c082015261115d60e084016110d1565b60e0820152610100611170818501611080565b908201529392505050565b6000815180845260005b818110156111a157602081850181015186830182015201611185565b5060006020828601015260207fffffffffffffffffffffffffffffffffffffffffffffffffffffffffffffffe0601f83011685010191505092915050565b602081526000611079602083018461117b565b60006020828403121561120457600080fd5b5051919050565b8181038181111561034c577f4e487b7100000000000000000000000000000000000000000000000000000000600052601160045260246000fd5b6000815160028110611280577f4e487b7100000000000000000000000000000000000000000000000000000000600052602160045260246000fd5b8084525060208201516040602085015261129d604085018261117b565b949350505050565b835173ffffffffffffffffffffffffffffffffffffffff16815260006101c060208601516112eb602085018273ffffffffffffffffffffffffffffffffffffffff169052565b506040860151611313604085018273ffffffffffffffffffffffffffffffffffffffff169052565b50606086015160608401526080860151608084015260a086015161133f60a085018263ffffffff169052565b5060c086015160c084015260e086015160e0840152610100808701518185015250610120808701516113748286018215159052565b50506101408681015190840152610160808701519084015261018083018190526113a081840186611245565b90508281036101a08401526113b5818561117b565b969550505050505056fea2646970667358221220cf0509d9c4efe46ab6b32fc8c58f37ef987cdc1d521acd58a049876f4b291b8564736f6c63430008100033",
    "linkReferences": {}
  },
  "methodIdentifiers": {
    "cowSwapDomainSeparatorPublic()": "68629bf4",
    "cowSwapSettlement()": "ec30bb88",
    "createOrder((address,address,uint256,uint256,bytes32,uint256,uint32,bool,int64))": "322bba21",
    "deleteOrder((address,address,uint256,uint256,bytes32,uint256,uint32,bool,int64))": "b52e0d64",
    "isValidSignature(bytes32,bytes)": "1626ba7e",
    "orders(bytes32)": "9c3f1e90",
    "wrappedNativeToken()": "17fcb39b"
  },
  "id": 20
}