{"abi":[{"type":"function","name":"withdraw","inputs":[{"name":"amount","type":"uint256","internalType":"uint256"}],"outputs":[],"stateMutability":"nonpayable"}],"bytecode":{"object":"0x608060405234801561001057600080fd5b5061014e806100206000396000f3fe608060405234801561001057600080fd5b506004361061002b5760003560e01c80632e1a7d4d14610030575b600080fd5b61004361003e3660046100ff565b610045565b005b604051600090339083908381818185875af1925050503d8060008114610087576040519150601f19603f3d011682016040523d82523d6000602084013e61008c565b606091505b50509050806100fb576040517f08c379a000000000000000000000000000000000000000000000000000000000815260206004820152601260248201527f53656e64696e6720455448206661696c65640000000000000000000000000000604482015260640160405180910390fd5b5050565b60006020828403121561011157600080fd5b503591905056fea264697066735822122008e2be9a8aa9f93fb3b573e9ba88ea50d81d5003e6ab63d2ff6b1e582b115ed264736f6c63430008100033","linkReferences":{}},"methodIdentifiers":{"withdraw(uint256)":"2e1a7d4d"},"id":49}