{"abi":[{"type":"function","name":"arithmeticError","inputs":[],"outputs":[{"name":"","type":"bytes","internalType":"bytes"}],"stateMutability":"view"},{"type":"function","name":"assertionError","inputs":[],"outputs":[{"name":"","type":"bytes","internalType":"bytes"}],"stateMutability":"view"},{"type":"function","name":"divisionError","inputs":[],"outputs":[{"name":"","type":"bytes","internalType":"bytes"}],"stateMutability":"view"},{"type":"function","name":"encodeStorageError","inputs":[],"outputs":[{"name":"","type":"bytes","internalType":"bytes"}],"stateMutability":"view"},{"type":"function","name":"enumConversionError","inputs":[],"outputs":[{"name":"","type":"bytes","internalType":"bytes"}],"stateMutability":"view"},{"type":"function","name":"indexOOBError","inputs":[],"outputs":[{"name":"","type":"bytes","internalType":"bytes"}],"stateMutability":"view"},{"type":"function","name":"lowLevelError","inputs":[],"outputs":[{"name":"","type":"bytes","internalType":"bytes"}],"stateMutability":"view"},{"type":"function","name":"memOverflowError","inputs":[],"outputs":[{"name":"","type":"bytes","internalType":"bytes"}],"stateMutability":"view"},{"type":"function","name":"popError","inputs":[],"outputs":[{"name":"","type":"bytes","internalType":"bytes"}],"stateMutability":"view"},{"type":"function","name":"zeroVarError","inputs":[],"outputs":[{"name":"","type":"bytes","internalType":"bytes"}],"stateMutability":"view"}],"bytecode":{"object":"0x6102fa61003a600b82828239805160001a60731461002d57634e487b7160e01b600052600060045260246000fd5b30600052607381538281f3fe73000000000000000000000000000000000000000030146080604052600436106100c85760003560e01c8063ac3d92c611610080578063b67689da11610065578063b67689da14610129578063d160e4de14610131578063fa784a441461013957600080fd5b8063ac3d92c61461010b578063b22dc54d1461012157600080fd5b80631de45560116100b15780631de45560146100f35780638995290f146100fb578063986c5f681461010357600080fd5b806305ee8612146100cd57806310332977146100eb575b600080fd5b6100d5610141565b6040516100e29190610258565b60405180910390f35b6100d56101c8565b6100d56101da565b6100d56101ec565b6100d56101fe565b6100d56040518060200160405280600081525081565b6100d5610210565b6100d5610222565b6100d5610234565b6100d5610246565b604051603260248201526044015b604080517fffffffffffffffffffffffffffffffffffffffffffffffffffffffffffffffe08184030181529190526020810180517bffffffffffffffffffffffffffffffffffffffffffffffffffffffff167f4e487b710000000000000000000000000000000000000000000000000000000017905281565b6040516001602482015260440161014f565b6040516021602482015260440161014f565b6040516011602482015260440161014f565b6040516041602482015260440161014f565b6040516031602482015260440161014f565b6040516051602482015260440161014f565b6040516022602482015260440161014f565b6040516012602482015260440161014f565b600060208083528351808285015260005b8181101561028557858101830151858201604001528201610269565b5060006040828601015260407fffffffffffffffffffffffffffffffffffffffffffffffffffffffffffffffe0601f830116850101925050509291505056fea26469706673582212209ccd61b9adaed31167553166410692f5693d790c6bb632e1d8739f08809f173964736f6c63430008100033","linkReferences":{}},"methodIdentifiers":{"arithmeticError()":"8995290f","assertionError()":"10332977","divisionError()":"fa784a44","encodeStorageError()":"d160e4de","enumConversionError()":"1de45560","indexOOBError()":"05ee8612","lowLevelError()":"ac3d92c6","memOverflowError()":"986c5f68","popError()":"b22dc54d","zeroVarError()":"b67689da"},"id":2}