{"abi":[{"type":"function","name":"bytesToBytes32","inputs":[{"name":"b","type":"bytes","internalType":"bytes"},{"name":"offset","type":"uint256","internalType":"uint256"}],"outputs":[{"name":"","type":"bytes32","internalType":"bytes32"}],"stateMutability":"pure"},{"type":"event","name":"SlotFound","inputs":[{"name":"who","type":"address","indexed":false,"internalType":"address"},{"name":"fsig","type":"bytes4","indexed":false,"internalType":"bytes4"},{"name":"keysHash","type":"bytes32","indexed":false,"internalType":"bytes32"},{"name":"slot","type":"uint256","indexed":false,"internalType":"uint256"}],"anonymous":false},{"type":"event","name":"WARNING_UninitedSlot","inputs":[{"name":"who","type":"address","indexed":false,"internalType":"address"},{"name":"slot","type":"uint256","indexed":false,"internalType":"uint256"}],"anonymous":false}],"bytecode":{"object":"0x61031461003a600b82828239805160001a60731461002d57634e487b7160e01b600052600060045260246000fd5b30600052607381538281f3fe73000000000000000000000000000000000000000030146080604052600436106100355760003560e01c8063535849391461003a575b600080fd5b61004d610048366004610125565b61005f565b60405190815260200160405180910390f35b60008060006020855111610074578451610077565b60205b905060005b818110156100ea5761008f816008610227565b8661009a8388610264565b815181106100aa576100aa610277565b01602001517fff0000000000000000000000000000000000000000000000000000000000000016901c9290921791806100e2816102a6565b91505061007c565b50909150505b92915050565b7f4e487b7100000000000000000000000000000000000000000000000000000000600052604160045260246000fd5b6000806040838503121561013857600080fd5b823567ffffffffffffffff8082111561015057600080fd5b818501915085601f83011261016457600080fd5b813581811115610176576101766100f6565b604051601f82017fffffffffffffffffffffffffffffffffffffffffffffffffffffffffffffffe0908116603f011681019083821181831017156101bc576101bc6100f6565b816040528281528860208487010111156101d557600080fd5b826020860160208301376000602093820184015298969091013596505050505050565b7f4e487b7100000000000000000000000000000000000000000000000000000000600052601160045260246000fd5b6000817fffffffffffffffffffffffffffffffffffffffffffffffffffffffffffffffff048311821515161561025f5761025f6101f8565b500290565b808201808211156100f0576100f06101f8565b7f4e487b7100000000000000000000000000000000000000000000000000000000600052603260045260246000fd5b60007fffffffffffffffffffffffffffffffffffffffffffffffffffffffffffffffff82036102d7576102d76101f8565b506001019056fea264697066735822122079d60bc3da11b6afe624434a432ea7bc7fc93ebee11b14e16fe3ce7608bf9fdc64736f6c63430008100033","linkReferences":{}},"methodIdentifiers":{"bytesToBytes32(bytes,uint256)":"53584939"},"id":2}