{
  "abi": [
    {
      "inputs": [
        {
          "internalType": "contract ISettlement",
          "name": "_settlement",
          "type": "address"
        }
      ],
      "stateMutability": "nonpayable",
      "type": "constructor"
    },
    {
      "anonymous": false,
      "inputs": [
        {
          "indexed": true,
          "internalType": "address",
          "name": "owner",
          "type": "address"
        },
        {
          "components": [
            {
              "internalType": "contract IERC20",
              "name": "sellToken",
              "type": "address"
            },
            {
              "internalType": "contract IERC20",
              "name": "buyToken",
              "type": "address"
            },
            {
              "internalType": "address",
              "name": "receiver",
              "type": "address"
            },
            {
              "internalType": "uint256",
              "name": "sellAmount",
              "type": "uint256"
            },
            {
              "internalType": "uint256",
              "name": "buyAmount",
              "type": "uint256"
            },
            {
              "internalType": "uint32",
              "name": "validTo",
              "type": "uint32"
            },
            {
              "internalType": "bytes32",
              "name": "appData",
              "type": "bytes32"
            },
            {
              "internalType": "uint256",
              "name": "feeAmount",
              "type": "uint256"
            },
            {
              "internalType": "bytes32",
              "name": "kind",
              "type": "bytes32"
            },
            {
              "internalType": "bool",
              "name": "partiallyFillable",
              "type": "bool"
            },
            {
              "internalType": "bytes32",
              "name": "sellTokenBalance",
              "type": "bytes32"
            },
            {
              "internalType": "bytes32",
              "name": "buyTokenBalance",
              "type": "bytes32"
            }
          ],
          "indexed": false,
          "internalType": "struct GPv2Order.Data",
          "name": "order",
          "type": "tuple"
        },
        {
          "components": [
            {
              "internalType": "enum CowSwapOnchainOrder.OnchainSigningScheme",
              "name": "scheme",
              "type": "uint8"
            },
            {
              "internalType": "bytes",
              "name": "data",
              "type": "bytes"
            }
          ],
          "indexed": false,
          "internalType": "struct CowSwapOnchainOrder.OnchainSignature",
          "name": "signature",
          "type": "tuple"
        },
        {
          "indexed": false,
          "internalType": "bytes",
          "name": "data",
          "type": "bytes"
        }
      ],
      "name": "OrderPlacement",
      "type": "event"
    },
    {
      "inputs": [
        {
          "components": [
            {
              "internalType": "contract IERC20",
              "name": "sellToken",
              "type": "address"
            },
            {
              "internalType": "contract IERC20",
              "name": "buyToken",
              "type": "address"
            },
            {
              "internalType": "address",
              "name": "receiver",
              "type": "address"
            },
            {
              "internalType": "uint256",
              "name": "sellAmount",
              "type": "uint256"
            },
            {
              "internalType": "uint256",
              "name": "buyAmount",
              "type": "uint256"
            },
            {
              "internalType": "uint32",
              "name": "validTo",
              "type": "uint32"
            },
            {
              "internalType": "bytes32",
              "name": "appData",
              "type": "bytes32"
            },
            {
              "internalType": "uint256",
              "name": "feeAmount",
              "type": "uint256"
            },
            {
              "internalType": "bytes32",
              "name": "kind",
              "type": "bytes32"
            },
            {
              "internalType": "bool",
              "name": "partiallyFillable",
              "type": "bool"
            },
            {
              "internalType": "bytes32",
              "name": "sellTokenBalance",
              "type": "bytes32"
            },
            {
              "internalType": "bytes32",
              "name": "buyTokenBalance",
              "type": "bytes32"
            }
          ],
          "internalType": "struct GPv2Order.Data",
          "name": "order",
          "type": "tuple"
        },
        {
          "components": [
            {
              "internalType": "enum CowSwapOnchainOrder.OnchainSigningScheme",
              "name": "scheme",
              "type": "uint8"
            },
            {
              "internalType": "bytes",
              "name": "data",
              "type": "bytes"
            }
          ],
          "internalType": "struct CowSwapOnchainOrder.OnchainSignature",
          "name": "signature",
          "type": "tuple"
        },
        {
          "internalType": "bytes",
          "name": "data",
          "type": "bytes"
        }
      ],
      "name": "broadcastOrder",
      "outputs": [
        {
          "internalType": "bytes32",
          "name": "",
          "type": "bytes32"
        }
      ],
      "stateMutability": "nonpayable",
      "type": "function"
    },
    {
      "inputs": [
        {
          "components": [
            {
              "internalType": "contract IERC20",
              "name": "sellToken",
              "type": "address"
            },
            {
              "internalType": "contract IERC20",
              "name": "buyToken",
              "type": "address"
            },
            {
              "internalType": "address",
              "name": "receiver",
              "type": "address"
            },
            {
              "internalType": "uint256",
              "name": "sellAmount",
              "type": "uint256"
            },
            {
              "internalType": "uint256",
              "name": "buyAmount",
              "type": "uint256"
            },
            {
              "internalType": "uint32",
              "name": "validTo",
              "type": "uint32"
            },
            {
              "internalType": "bytes32",
              "name": "appData",
              "type": "bytes32"
            },
            {
              "internalType": "uint256",
              "name": "feeAmount",
              "type": "uint256"
            },
            {
              "internalType": "bytes32",
              "name": "kind",
              "type": "bytes32"
            },
            {
              "internalType": "bool",
              "name": "partiallyFillable",
              "type": "bool"
            },
            {
              "internalType": "bytes32",
              "name": "sellTokenBalance",
              "type": "bytes32"
            },
            {
              "internalType": "bytes32",
              "name": "buyTokenBalance",
              "type": "bytes32"
            }
          ],
          "internalType": "struct GPv2Order.Data",
          "name": "order",
          "type": "tuple"
        },
        {
          "components": [
            {
              "internalType": "enum CowSwapOnchainOrder.OnchainSigningScheme",
              "name": "scheme",
              "type": "uint8"
            },
            {
              "internalType": "bytes",
              "name": "data",
              "type": "bytes"
            }
          ],
          "internalType": "struct CowSwapOnchainOrder.OnchainSignature",
          "name": "signature",
          "type": "tuple"
        },
        {
          "internalType": "bytes",
          "name": "data",
          "type": "bytes"
        }
      ],
      "name": "presignOrder",
      "outputs": [
        {
          "internalType": "bytes32",
          "name": "orderDigest",
          "type": "bytes32"
        }
      ],
      "stateMutability": "nonpayable",
      "type": "function"
    },
    {
      "inputs": [],
      "name": "settlement",
      "outputs": [
        {
          "internalType": "contract ISettlement",
          "name": "",
          "type": "address"
        }
      ],
      "stateMutability": "view",
      "type": "function"
    },
    {
      "inputs": [],
      "name": "this_contract_address",
      "outputs": [
        {
          "internalType": "address",
          "name": "",
          "type": "address"
        }
      ],
      "stateMutability": "view",
      "type": "function"
    }
  ],
  "bytecode": {
    "object": "0x60a060405234801561001057600080fd5b506040516108f03803806108f083398101604081905261002f91610052565b6001600160a01b0316608052600080546001600160a01b03191630179055610082565b60006020828403121561006457600080fd5b81516001600160a01b038116811461007b57600080fd5b9392505050565b60805161084d6100a3600039600081816056015261018c015261084d6000f3fe608060405234801561001057600080fd5b506004361061004c5760003560e01c806351160630146100515780639bf893df14610095578063a042c89c146100b6578063dd77d2f2146100c9575b600080fd5b6100787f000000000000000000000000000000000000000000000000000000000000000081565b6040516001600160a01b0390911681526020015b60405180910390f35b6100a86100a336600461055a565b6100dc565b60405190815260200161008c565b600054610078906001600160a01b031681565b6100a86100d736600461055a565b6101fe565b600080546001600160a01b0316300361014b5760405162461bcd60e51b815260206004820152602660248201527f73686f756c64206f6e6c792062652063616c6c6564207669612064656c6567616044820152651d1958d85b1b60d21b60648201526084015b60405180910390fd5b6101568484846101fe565b9050606061017582338760a0015184610213909392919063ffffffff16565b60405163ec6cb13f60e01b81526001600160a01b037f0000000000000000000000000000000000000000000000000000000000000000169063ec6cb13f906101c49084906001906004016106c1565b600060405180830381600087803b1580156101de57600080fd5b505af11580156101f2573d6000803e3d6000fd5b50505050509392505050565b600061020b848484610276565b949350505050565b60388451146102645760405162461bcd60e51b815260206004820152601960248201527f475076323a2075696420627566666572206f766572666c6f77000000000000006044820152606401610142565b60388401526034830152602090910152565b6000336001600160a01b03167fcf5f9de2984132265203b5c335b25727702ca77262ff622e136baa7362bf1da98585856040516102b593929190610724565b60405180910390a261020b61037f604080517f8b73c3c69bb8fe3d512ecc4cf759cc79239f7b179b0ffacaa9a75d522b39400f60208201527f6c85c0337eba1661327f94f3bf46c8a7f9311a563f4d5c948362567f5d8ed60c918101919091527ff9446b8e937d86f0bc87cac73923491692b123ca5f8761908494703758206adf60608201524660808201819052739008d19f58aabd9ed0d60971565aa8510560ab4160a083015260009160c0016040516020818303038152906040528051906020012091505090565b601f19860180517fd5a25ba2e97094ad7d83dc28a6572da797d6b3e7fc6663bd93efb789fc17e48982526101a08220915260405161190160f01b8152600281019290925260228201526042902090565b634e487b7160e01b600052604160045260246000fd5b604051610180810167ffffffffffffffff81118282101715610409576104096103cf565b60405290565b80356001600160a01b038116811461042657600080fd5b919050565b803563ffffffff8116811461042657600080fd5b8035801515811461042657600080fd5b600082601f83011261046057600080fd5b813567ffffffffffffffff8082111561047b5761047b6103cf565b604051601f8301601f19908116603f011681019082821181831017156104a3576104a36103cf565b816040528381528660208588010111156104bc57600080fd5b836020870160208301376000602085830101528094505050505092915050565b6000604082840312156104ee57600080fd5b6040516040810167ffffffffffffffff8282108183111715610512576105126103cf565b81604052829350843591506002821061052a57600080fd5b9082526020840135908082111561054057600080fd5b5061054d8582860161044f565b6020830152505092915050565b60008060008385036101c081121561057157600080fd5b6101808082121561058157600080fd5b6105896103e5565b91506105948661040f565b82526105a26020870161040f565b60208301526105b36040870161040f565b604083015260608601356060830152608086013560808301526105d860a0870161042b565b60a083015260c086013560c083015260e086013560e083015261010080870135818401525061012061060b81880161043f565b908301526101408681013590830152610160808701359083015290935084013567ffffffffffffffff8082111561064157600080fd5b61064d878388016104dc565b93506101a086013591508082111561066457600080fd5b506106718682870161044f565b9150509250925092565b6000815180845260005b818110156106a157602081850181015186830182015201610685565b506000602082860101526020601f19601f83011685010191505092915050565b6040815260006106d4604083018561067b565b905082151560208301529392505050565b600081516002811061070757634e487b7160e01b600052602160045260246000fd5b8084525060208201516040602085015261020b604085018261067b565b83516001600160a01b0316815260006101c0602086015161075060208501826001600160a01b03169052565b50604086015161076b60408501826001600160a01b03169052565b50606086015160608401526080860151608084015260a086015161079760a085018263ffffffff169052565b5060c086015160c084015260e086015160e0840152610100808701518185015250610120808701516107cc8286018215159052565b50506101408681015190840152610160808701519084015261018083018190526107f8818401866106e5565b90508281036101a084015261080d818561067b565b969550505050505056fea264697066735822122059f2f40dcce3a4da31574ae06fd0522f32a14ba135d4a317013b8f21fa9b1bcd64736f6c63430008100033",
    "linkReferences": {}
  },
  "methodIdentifiers": {
    "broadcastOrder((address,address,address,uint256,uint256,uint32,bytes32,uint256,bytes32,bool,bytes32,bytes32),(uint8,bytes),bytes)": "dd77d2f2",
    "presignOrder((address,address,address,uint256,uint256,uint32,bytes32,uint256,bytes32,bool,bytes32,bytes32),(uint8,bytes),bytes)": "9bf893df",
    "settlement()": "51160630",
    "this_contract_address()": "a042c89c"
  },
  "id": 7
}