{
  "abi": [
    {
      "inputs": [
        {
          "internalType": "contract ICoWSwapSettlement",
          "name": "_cowSwapSettlement",
          "type": "address"
        },
        {
          "internalType": "contract IWrappedNativeToken",
          "name": "_wrappedNativeToken",
          "type": "address"
        }
      ],
      "stateMutability": "nonpayable",
      "type": "constructor"
    },
    {
      "inputs": [],
      "name": "EthTransferFailed",
      "type": "error"
    },
    {
      "inputs": [],
      "name": "IncorrectEthAmount",
      "type": "error"
    },
    {
      "inputs": [
        {
          "internalType": "bytes32",
          "name": "orderHash",
          "type": "bytes32"
        }
      ],
      "name": "NotAllowedToInvalidateOrder",
      "type": "error"
    },
    {
      "inputs": [],
      "name": "NotAllowedZeroSellAmount",
      "type": "error"
    },
    {
      "inputs": [
        {
          "internalType": "bytes32",
          "name": "orderHash",
          "type": "bytes32"
        }
      ],
      "name": "OrderIsAlreadyOwned",
      "type": "error"
    },
    {
      "inputs": [],
      "name": "ReceiverMustBeSet",
      "type": "error"
    },
    {
      "anonymous": false,
      "inputs": [
        {
          "indexed": false,
          "internalType": "bytes",
          "name": "orderUid",
          "type": "bytes"
        }
      ],
      "name": "OrderInvalidation",
      "type": "event"
    },
    {
      "anonymous": false,
      "inputs": [
        {
          "indexed": true,
          "internalType": "address",
          "name": "sender",
          "type": "address"
        },
        {
          "components": [
            {
              "internalType": "contract IERC20",
              "name": "sellToken",
              "type": "address"
            },
            {
              "internalType": "contract IERC20",
              "name": "buyToken",
              "type": "address"
            },
            {
              "internalType": "address",
              "name": "receiver",
              "type": "address"
            },
            {
              "internalType": "uint256",
              "name": "sellAmount",
              "type": "uint256"
            },
            {
              "internalType": "uint256",
              "name": "buyAmount",
              "type": "uint256"
            },
            {
              "internalType": "uint32",
              "name": "validTo",
              "type": "uint32"
            },
            {
              "internalType": "bytes32",
              "name": "appData",
              "type": "bytes32"
            },
            {
              "internalType": "uint256",
              "name": "feeAmount",
              "type": "uint256"
            },
            {
              "internalType": "bytes32",
              "name": "kind",
              "type": "bytes32"
            },
            {
              "internalType": "bool",
              "name": "partiallyFillable",
              "type": "bool"
            },
            {
              "internalType": "bytes32",
              "name": "sellTokenBalance",
              "type": "bytes32"
            },
            {
              "internalType": "bytes32",
              "name": "buyTokenBalance",
              "type": "bytes32"
            }
          ],
          "indexed": false,
          "internalType": "struct GPv2Order.Data",
          "name": "order",
          "type": "tuple"
        },
        {
          "components": [
            {
              "internalType": "enum ICoWSwapOnchainOrders.OnchainSigningScheme",
              "name": "scheme",
              "type": "uint8"
            },
            {
              "internalType": "bytes",
              "name": "data",
              "type": "bytes"
            }
          ],
          "indexed": false,
          "internalType": "struct ICoWSwapOnchainOrders.OnchainSignature",
          "name": "signature",
          "type": "tuple"
        },
        {
          "indexed": false,
          "internalType": "bytes",
          "name": "data",
          "type": "bytes"
        }
      ],
      "name": "OrderPlacement",
      "type": "event"
    },
    {
      "anonymous": false,
      "inputs": [
        {
          "indexed": false,
          "internalType": "bytes",
          "name": "orderUid",
          "type": "bytes"
        },
        {
          "indexed": true,
          "internalType": "address",
          "name": "refunder",
          "type": "address"
        }
      ],
      "name": "OrderRefund",
      "type": "event"
    },
    {
      "inputs": [],
      "name": "cowSwapSettlement",
      "outputs": [
        {
          "internalType": "contract ICoWSwapSettlement",
          "name": "",
          "type": "address"
        }
      ],
      "stateMutability": "view",
      "type": "function"
    },
    {
      "inputs": [
        {
          "components": [
            {
              "internalType": "contract IERC20",
              "name": "buyToken",
              "type": "address"
            },
            {
              "internalType": "address",
              "name": "receiver",
              "type": "address"
            },
            {
              "internalType": "uint256",
              "name": "sellAmount",
              "type": "uint256"
            },
            {
              "internalType": "uint256",
              "name": "buyAmount",
              "type": "uint256"
            },
            {
              "internalType": "bytes32",
              "name": "appData",
              "type": "bytes32"
            },
            {
              "internalType": "uint256",
              "name": "feeAmount",
              "type": "uint256"
            },
            {
              "internalType": "uint32",
              "name": "validTo",
              "type": "uint32"
            },
            {
              "internalType": "bool",
              "name": "partiallyFillable",
              "type": "bool"
            },
            {
              "internalType": "int64",
              "name": "quoteId",
              "type": "int64"
            }
          ],
          "internalType": "struct EthFlowOrder.Data",
          "name": "order",
          "type": "tuple"
        }
      ],
      "name": "createOrder",
      "outputs": [
        {
          "internalType": "bytes32",
          "name": "orderHash",
          "type": "bytes32"
        }
      ],
      "stateMutability": "payable",
      "type": "function"
    },
    {
      "inputs": [
        {
          "components": [
            {
              "internalType": "contract IERC20",
              "name": "buyToken",
              "type": "address"
            },
            {
              "internalType": "address",
              "name": "receiver",
              "type": "address"
            },
            {
              "internalType": "uint256",
              "name": "sellAmount",
              "type": "uint256"
            },
            {
              "internalType": "uint256",
              "name": "buyAmount",
              "type": "uint256"
            },
            {
              "internalType": "bytes32",
              "name": "appData",
              "type": "bytes32"
            },
            {
              "internalType": "uint256",
              "name": "feeAmount",
              "type": "uint256"
            },
            {
              "internalType": "uint32",
              "name": "validTo",
              "type": "uint32"
            },
            {
              "internalType": "bool",
              "name": "partiallyFillable",
              "type": "bool"
            },
            {
              "internalType": "int64",
              "name": "quoteId",
              "type": "int64"
            }
          ],
          "internalType": "struct EthFlowOrder.Data",
          "name": "order",
          "type": "tuple"
        }
      ],
      "name": "invalidateOrder",
      "outputs": [],
      "stateMutability": "nonpayable",
      "type": "function"
    },
    {
      "inputs": [
        {
          "components": [
            {
              "internalType": "contract IERC20",
              "name": "buyToken",
              "type": "address"
            },
            {
              "internalType": "address",
              "name": "receiver",
              "type": "address"
            },
            {
              "internalType": "uint256",
              "name": "sellAmount",
              "type": "uint256"
            },
            {
              "internalType": "uint256",
              "name": "buyAmount",
              "type": "uint256"
            },
            {
              "internalType": "bytes32",
              "name": "appData",
              "type": "bytes32"
            },
            {
              "internalType": "uint256",
              "name": "feeAmount",
              "type": "uint256"
            },
            {
              "internalType": "uint32",
              "name": "validTo",
              "type": "uint32"
            },
            {
              "internalType": "bool",
              "name": "partiallyFillable",
              "type": "bool"
            },
            {
              "internalType": "int64",
              "name": "quoteId",
              "type": "int64"
            }
          ],
          "internalType": "struct EthFlowOrder.Data[]",
          "name": "orderArray",
          "type": "tuple[]"
        }
      ],
      "name": "invalidateOrdersIgnoringNotAllowed",
      "outputs": [],
      "stateMutability": "nonpayable",
      "type": "function"
    },
    {
      "inputs": [
        {
          "internalType": "bytes32",
          "name": "orderHash",
          "type": "bytes32"
        },
        {
          "internalType": "bytes",
          "name": "",
          "type": "bytes"
        }
      ],
      "name": "isValidSignature",
      "outputs": [
        {
          "internalType": "bytes4",
          "name": "",
          "type": "bytes4"
        }
      ],
      "stateMutability": "view",
      "type": "function"
    },
    {
      "inputs": [
        {
          "internalType": "bytes32",
          "name": "",
          "type": "bytes32"
        }
      ],
      "name": "orders",
      "outputs": [
        {
          "internalType": "address",
          "name": "owner",
          "type": "address"
        },
        {
          "internalType": "uint32",
          "name": "validTo",
          "type": "uint32"
        }
      ],
      "stateMutability": "view",
      "type": "function"
    },
    {
      "inputs": [
        {
          "internalType": "uint256",
          "name": "amount",
          "type": "uint256"
        }
      ],
      "name": "unwrap",
      "outputs": [],
      "stateMutability": "nonpayable",
      "type": "function"
    },
    {
      "inputs": [
        {
          "internalType": "uint256",
          "name": "amount",
          "type": "uint256"
        }
      ],
      "name": "wrap",
      "outputs": [],
      "stateMutability": "nonpayable",
      "type": "function"
    },
    {
      "inputs": [],
      "name": "wrapAll",
      "outputs": [],
      "stateMutability": "nonpayable",
      "type": "function"
    },
    {
      "inputs": [],
      "name": "wrappedNativeToken",
      "outputs": [
        {
          "internalType": "contract IWrappedNativeToken",
          "name": "",
          "type": "address"
        }
      ],
      "stateMutability": "view",
      "type": "function"
    },
    {
      "stateMutability": "payable",
      "type": "receive"
    }
  ],
  "bytecode": {
    "object": "0x60e06040523480156200001157600080fd5b5060405162001adb38038062001adb83398101604081905262000034916200021e565b816200004b816200015260201b6200084c1760201c565b608052506001600160a01b0380831660a081905290821660c081905260408051634daa966160e11b81529051919263095ea7b3929091639b552cc291600480830192602092919082900301816000875af1158015620000ae573d6000803e3d6000fd5b505050506040513d601f19601f82011682018060405250810190620000d491906200025d565b6040516001600160e01b031960e084901b1681526001600160a01b03909116600482015260001960248201526044016020604051808303816000875af115801562000123573d6000803e3d6000fd5b505050506040513d601f19601f8201168201806040525081019062000149919062000284565b505050620002a8565b604080517f8b73c3c69bb8fe3d512ecc4cf759cc79239f7b179b0ffacaa9a75d522b39400f60208201527f6c85c0337eba1661327f94f3bf46c8a7f9311a563f4d5c948362567f5d8ed60c918101919091527ff9446b8e937d86f0bc87cac73923491692b123ca5f8761908494703758206adf606082015246608082018190526001600160a01b03831660a083015260009160c00160405160208183030381529060405280519060200120915050919050565b6001600160a01b03811681146200021b57600080fd5b50565b600080604083850312156200023257600080fd5b82516200023f8162000205565b6020840151909250620002528162000205565b809150509250929050565b6000602082840312156200027057600080fd5b81516200027d8162000205565b9392505050565b6000602082840312156200029757600080fd5b815180151581146200027d57600080fd5b60805160a05160c0516117d26200030960003960008181610129015281816105b00152818161075e015281816107d601528181610be40152610fe20152600081816102ce0152610efc015260008181610ba80152610c8a01526117d26000f3fe6080604052600436106100b55760003560e01c80637bc41b9611610069578063de0e9a3e1161004e578063de0e9a3e1461027c578063ea598cb01461029c578063ec30bb88146102bc57600080fd5b80637bc41b96146101c85780639c3f1e90146101e857600080fd5b8063322bba211161009a578063322bba21146101705780634c84c1c8146101915780634cb76498146101a857600080fd5b80631626ba7e146100c157806317fcb39b1461011757600080fd5b366100bc57005b600080fd5b3480156100cd57600080fd5b506100e16100dc36600461121f565b6102f0565b6040517fffffffff0000000000000000000000000000000000000000000000000000000090911681526020015b60405180910390f35b34801561012357600080fd5b5061014b7f000000000000000000000000000000000000000000000000000000000000000081565b60405173ffffffffffffffffffffffffffffffffffffffff909116815260200161010e565b61018361017e3660046112dc565b6103de565b60405190815260200161010e565b34801561019d57600080fd5b506101a66106d1565b005b3480156101b457600080fd5b506101a66101c33660046112f5565b6106dc565b3480156101d457600080fd5b506101a66101e33660046112dc565b610721565b3480156101f457600080fd5b5061024b61020336600461136b565b60006020819052908152604090205473ffffffffffffffffffffffffffffffffffffffff81169074010000000000000000000000000000000000000000900463ffffffff1682565b6040805173ffffffffffffffffffffffffffffffffffffffff909316835263ffffffff90911660208301520161010e565b34801561028857600080fd5b506101a661029736600461136b565b61072f565b3480156102a857600080fd5b506101a66102b736600461136b565b6107d2565b3480156102c857600080fd5b5061014b7f000000000000000000000000000000000000000000000000000000000000000081565b60008281526020818152604080832081518083019092525473ffffffffffffffffffffffffffffffffffffffff81168083527401000000000000000000000000000000000000000090910463ffffffff1692820192909252901580159061036f5750805173ffffffffffffffffffffffffffffffffffffffff90811614155b8015610385575042816020015163ffffffff1610155b156103b357507f1626ba7e0000000000000000000000000000000000000000000000000000000090506103d8565b507fffffffff0000000000000000000000000000000000000000000000000000000090505b92915050565b60006103f260a083013560408401356113b3565b341461042a576040517f8b6ebb4d00000000000000000000000000000000000000000000000000000000815260040160405180910390fd5b8160400135600003610468576040517feaec5c9d00000000000000000000000000000000000000000000000000000000815260040160405180910390fd5b604080518082019091523381526000906020810161048c60e0860160c087016113df565b63ffffffff1690526040805180820190915290915060009080828152602001306040516020016104e7919060609190911b7fffffffffffffffffffffffffffffffffffffffff00000000000000000000000016815260140190565b604080517fffffffffffffffffffffffffffffffffffffffffffffffffffffffffffffffe081840301815291905290529050600061052d61012086016101008701611413565b60208085015160405161057493920160c09290921b825260e01b7fffffffff00000000000000000000000000000000000000000000000000000000166008820152600c0190565b604080517fffffffffffffffffffffffffffffffffffffffffffffffffffffffffffffffe081840301815291905283519091506105eb906105e47f00000000000000000000000000000000000000000000000000000000000000006105de368a90038a018a611462565b9061090c565b8484610adb565b60008181526020819052604090205490945073ffffffffffffffffffffffffffffffffffffffff1615610652576040517f56a1d2b2000000000000000000000000000000000000000000000000000000008152600481018590526024015b60405180910390fd5b505060008281526020818152604090912082518154929093015163ffffffff1674010000000000000000000000000000000000000000027fffffffffffffffff00000000000000000000000000000000000000000000000090921673ffffffffffffffffffffffffffffffffffffffff90931692909217179055919050565b6106da476107d2565b565b60005b8181101561071c5761070a8383838181106106fc576106fc6114fc565b905061012002016000610bdd565b806107148161152b565b9150506106df565b505050565b61072c816001610bdd565b50565b6040517f2e1a7d4d000000000000000000000000000000000000000000000000000000008152600481018290527f000000000000000000000000000000000000000000000000000000000000000073ffffffffffffffffffffffffffffffffffffffff1690632e1a7d4d90602401600060405180830381600087803b1580156107b757600080fd5b505af11580156107cb573d6000803e3d6000fd5b5050505050565b60007f000000000000000000000000000000000000000000000000000000000000000073ffffffffffffffffffffffffffffffffffffffff168260405160006040518083038185875af1925050503d80600081146107cb576040519150601f19603f3d011682016040523d82523d6000602084013e6107cb565b604080517f8b73c3c69bb8fe3d512ecc4cf759cc79239f7b179b0ffacaa9a75d522b39400f60208201527f6c85c0337eba1661327f94f3bf46c8a7f9311a563f4d5c948362567f5d8ed60c918101919091527ff9446b8e937d86f0bc87cac73923491692b123ca5f8761908494703758206adf6060820152466080820181905273ffffffffffffffffffffffffffffffffffffffff831660a083015260009160c00160405160208183030381529060405280519060200120915050919050565b604080516101808101825260008082526020808301829052928201819052606082018190526080820181905260a0820181905260c0820181905260e082018190526101008201819052610120820181905261014082018190526101608201529083015173ffffffffffffffffffffffffffffffffffffffff166109bb576040517fefc9ccdf00000000000000000000000000000000000000000000000000000000815260040160405180910390fd5b6040518061018001604052808373ffffffffffffffffffffffffffffffffffffffff168152602001846000015173ffffffffffffffffffffffffffffffffffffffff168152602001846020015173ffffffffffffffffffffffffffffffffffffffff168152602001846040015181526020018460600151815260200163ffffffff80168152602001846080015181526020018460a0015181526020017ff3b277728b3fee749481eb3e0b3b48980dbbab78658fc419025cb16eee34677581526020018460e00151151581526020017f5a28e9363bb942b639270062aa6bb295f434bcdfc42c97267bf003f272060dc981526020017f5a28e9363bb942b639270062aa6bb295f434bcdfc42c97267bf003f272060dc9815250905092915050565b60008473ffffffffffffffffffffffffffffffffffffffff167fcf5f9de2984132265203b5c335b25727702ca77262ff622e136baa7362bf1da9858585604051610b2793929190611627565b60405180910390a25050507fffffffffffffffffffffffffffffffffffffffffffffffffffffffffffffffe00180517fd5a25ba2e97094ad7d83dc28a6572da797d6b3e7fc6663bd93efb789fc17e48982526101a0822091526040517f190100000000000000000000000000000000000000000000000000000000000081527f00000000000000000000000000000000000000000000000000000000000000006002820152602281019190915260429020919050565b6000610c127f00000000000000000000000000000000000000000000000000000000000000006105de36869003860186611462565b7fffffffffffffffffffffffffffffffffffffffffffffffffffffffffffffffe0810180517fd5a25ba2e97094ad7d83dc28a6572da797d6b3e7fc6663bd93efb789fc17e48982526101a082209152604080517f190100000000000000000000000000000000000000000000000000000000000081527f0000000000000000000000000000000000000000000000000000000000000000600282015260228101929092526042909120600081815260208181529083902083518085019094525473ffffffffffffffffffffffffffffffffffffffff8082168086527401000000000000000000000000000000000000000090920463ffffffff1692850183905294955091934290911015911480610d3e5750815173ffffffffffffffffffffffffffffffffffffffff16155b80610d685750808015610d685750815173ffffffffffffffffffffffffffffffffffffffff163314155b15610db0578415610da8576040517ff8cc70ce00000000000000000000000000000000000000000000000000000000815260048101849052602401610649565b505050505050565b60008381526020818152604080832080547fffffffffffffffffffffffff00000000000000000000000000000000000000001673ffffffffffffffffffffffffffffffffffffffff1790558051603880825260608201909252918201818036833750505060a0860151909150610e2b908290869030906110fa565b8115610e6d577fb8bad102ac8bbacfef31ff1c906ec6d951c230b4dce750bb0376b812ad35852a81604051610e609190611741565b60405180910390a1610ebc565b3373ffffffffffffffffffffffffffffffffffffffff167f195271068a288191e4b265c641a56b9832919f69e9e7d6c2f31ba40278aeb85a82604051610eb39190611741565b60405180910390a25b6040517f2479fb6e00000000000000000000000000000000000000000000000000000000815260009073ffffffffffffffffffffffffffffffffffffffff7f00000000000000000000000000000000000000000000000000000000000000001690632479fb6e90610f31908590600401611741565b6020604051808303816000875af1158015610f50573d6000803e3d6000fd5b505050506040513d601f19601f82011682018060405250810190610f749190611754565b90506000808760600151838960e001510281610f9257610f9261176d565b048860e0015103905080838960600151030191505080471015611055576040517f2e1a7d4d00000000000000000000000000000000000000000000000000000000815247820360048201819052907f000000000000000000000000000000000000000000000000000000000000000073ffffffffffffffffffffffffffffffffffffffff1690632e1a7d4d90602401600060405180830381600087803b15801561103b57600080fd5b505af115801561104f573d6000803e3d6000fd5b50505050505b845160405160009173ffffffffffffffffffffffffffffffffffffffff169083908381818185875af1925050503d80600081146110ae576040519150601f19603f3d011682016040523d82523d6000602084013e6110b3565b606091505b50509050806110ee576040517f6d963f8800000000000000000000000000000000000000000000000000000000815260040160405180910390fd5b50505050505050505050565b6038845114611165576040517f08c379a000000000000000000000000000000000000000000000000000000000815260206004820152601960248201527f475076323a2075696420627566666572206f766572666c6f77000000000000006044820152606401610649565b60388401526034830152602090910152565b7f4e487b7100000000000000000000000000000000000000000000000000000000600052604160045260246000fd5b604051610120810167ffffffffffffffff811182821017156111ca576111ca611177565b60405290565b604051601f82017fffffffffffffffffffffffffffffffffffffffffffffffffffffffffffffffe016810167ffffffffffffffff8111828210171561121757611217611177565b604052919050565b6000806040838503121561123257600080fd5b8235915060208084013567ffffffffffffffff8082111561125257600080fd5b818601915086601f83011261126657600080fd5b81358181111561127857611278611177565b6112a8847fffffffffffffffffffffffffffffffffffffffffffffffffffffffffffffffe0601f840116016111d0565b915080825287848285010111156112be57600080fd5b80848401858401376000848284010152508093505050509250929050565b600061012082840312156112ef57600080fd5b50919050565b6000806020838503121561130857600080fd5b823567ffffffffffffffff8082111561132057600080fd5b818501915085601f83011261133457600080fd5b81358181111561134357600080fd5b8660206101208302850101111561135957600080fd5b60209290920196919550909350505050565b60006020828403121561137d57600080fd5b5035919050565b7f4e487b7100000000000000000000000000000000000000000000000000000000600052601160045260246000fd5b808201808211156103d8576103d8611384565b803563ffffffff811681146113da57600080fd5b919050565b6000602082840312156113f157600080fd5b6113fa826113c6565b9392505050565b8035600781900b81146113da57600080fd5b60006020828403121561142557600080fd5b6113fa82611401565b803573ffffffffffffffffffffffffffffffffffffffff811681146113da57600080fd5b803580151581146113da57600080fd5b6000610120828403121561147557600080fd5b61147d6111a6565b6114868361142e565b81526114946020840161142e565b602082015260408301356040820152606083013560608201526080830135608082015260a083013560a08201526114cd60c084016113c6565b60c08201526114de60e08401611452565b60e08201526101006114f1818501611401565b908201529392505050565b7f4e487b7100000000000000000000000000000000000000000000000000000000600052603260045260246000fd5b60007fffffffffffffffffffffffffffffffffffffffffffffffffffffffffffffffff820361155c5761155c611384565b5060010190565b6000815180845260005b818110156115895760208185018101518683018201520161156d565b5060006020828601015260207fffffffffffffffffffffffffffffffffffffffffffffffffffffffffffffffe0601f83011685010191505092915050565b6000815160028110611602577f4e487b7100000000000000000000000000000000000000000000000000000000600052602160045260246000fd5b8084525060208201516040602085015261161f6040850182611563565b949350505050565b835173ffffffffffffffffffffffffffffffffffffffff16815260006101c0602086015161166d602085018273ffffffffffffffffffffffffffffffffffffffff169052565b506040860151611695604085018273ffffffffffffffffffffffffffffffffffffffff169052565b50606086015160608401526080860151608084015260a08601516116c160a085018263ffffffff169052565b5060c086015160c084015260e086015160e0840152610100808701518185015250610120808701516116f68286018215159052565b5050610140868101519084015261016080870151908401526101808301819052611722818401866115c7565b90508281036101a08401526117378185611563565b9695505050505050565b6020815260006113fa6020830184611563565b60006020828403121561176657600080fd5b5051919050565b7f4e487b7100000000000000000000000000000000000000000000000000000000600052601260045260246000fdfea2646970667358221220fbd00440f83fe2ec38edc294a692386535641a25c0bd50376b4b6ea88fff8a1564736f6c63430008100033",
    "linkReferences": {}
  },
  "methodIdentifiers": {
    "cowSwapSettlement()": "ec30bb88",
    "createOrder((address,address,uint256,uint256,bytes32,uint256,uint32,bool,int64))": "322bba21",
    "invalidateOrder((address,address,uint256,uint256,bytes32,uint256,uint32,bool,int64))": "7bc41b96",
    "invalidateOrdersIgnoringNotAllowed((address,address,uint256,uint256,bytes32,uint256,uint32,bool,int64)[])": "4cb76498",
    "isValidSignature(bytes32,bytes)": "1626ba7e",
    "orders(bytes32)": "9c3f1e90",
    "unwrap(uint256)": "de0e9a3e",
    "wrap(uint256)": "ea598cb0",
    "wrapAll()": "4c84c1c8",
    "wrappedNativeToken()": "17fcb39b"
  },
  "id": 24
}