{"abi":[{"type":"constructor","inputs":[{"name":"settlementContractAddress","type":"address","internalType":"address"}],"stateMutability":"nonpayable"},{"type":"function","name":"broadcastOrderPublic","inputs":[{"name":"sender","type":"address","internalType":"address"},{"name":"order","type":"tuple","internalType":"struct GPv2Order.Data","components":[{"name":"sellToken","type":"address","internalType":"contract IERC20"},{"name":"buyToken","type":"address","internalType":"contract IERC20"},{"name":"receiver","type":"address","internalType":"address"},{"name":"sellAmount","type":"uint256","internalType":"uint256"},{"name":"buyAmount","type":"uint256","internalType":"uint256"},{"name":"validTo","type":"uint32","internalType":"uint32"},{"name":"appData","type":"bytes32","internalType":"bytes32"},{"name":"feeAmount","type":"uint256","internalType":"uint256"},{"name":"kind","type":"bytes32","internalType":"bytes32"},{"name":"partiallyFillable","type":"bool","internalType":"bool"},{"name":"sellTokenBalance","type":"bytes32","internalType":"bytes32"},{"name":"buyTokenBalance","type":"bytes32","internalType":"bytes32"}]},{"name":"signature","type":"tuple","internalType":"struct ICoWSwapOnchainOrders.OnchainSignature","components":[{"name":"scheme","type":"uint8","internalType":"enum ICoWSwapOnchainOrders.OnchainSigningScheme"},{"name":"data","type":"bytes","internalType":"bytes"}]},{"name":"data","type":"bytes","internalType":"bytes"}],"outputs":[{"name":"","type":"bytes32","internalType":"bytes32"}],"stateMutability":"nonpayable"},{"type":"function","name":"cowSwapDomainSeparatorPublic","inputs":[],"outputs":[{"name":"","type":"bytes32","internalType":"bytes32"}],"stateMutability":"view"},{"type":"event","name":"OrderInvalidation","inputs":[{"name":"orderUid","type":"bytes","indexed":false,"internalType":"bytes"}],"anonymous":false},{"type":"event","name":"OrderPlacement","inputs":[{"name":"sender","type":"address","indexed":true,"internalType":"address"},{"name":"order","type":"tuple","indexed":false,"internalType":"struct GPv2Order.Data","components":[{"name":"sellToken","type":"address","internalType":"contract IERC20"},{"name":"buyToken","type":"address","internalType":"contract IERC20"},{"name":"receiver","type":"address","internalType":"address"},{"name":"sellAmount","type":"uint256","internalType":"uint256"},{"name":"buyAmount","type":"uint256","internalType":"uint256"},{"name":"validTo","type":"uint32","internalType":"uint32"},{"name":"appData","type":"bytes32","internalType":"bytes32"},{"name":"feeAmount","type":"uint256","internalType":"uint256"},{"name":"kind","type":"bytes32","internalType":"bytes32"},{"name":"partiallyFillable","type":"bool","internalType":"bool"},{"name":"sellTokenBalance","type":"bytes32","internalType":"bytes32"},{"name":"buyTokenBalance","type":"bytes32","internalType":"bytes32"}]},{"name":"signature","type":"tuple","indexed":false,"internalType":"struct ICoWSwapOnchainOrders.OnchainSignature","components":[{"name":"scheme","type":"uint8","internalType":"enum ICoWSwapOnchainOrders.OnchainSigningScheme"},{"name":"data","type":"bytes","internalType":"bytes"}]},{"name":"data","type":"bytes","indexed":false,"internalType":"bytes"}],"anonymous":false}],"bytecode":{"object":"0x60a060405234801561001057600080fd5b506040516108f03803806108f083398101604081905261002f91610101565b806100438161004e60201b6100941760201c565b608052506101319050565b604080517f8b73c3c69bb8fe3d512ecc4cf759cc79239f7b179b0ffacaa9a75d522b39400f60208201527f6c85c0337eba1661327f94f3bf46c8a7f9311a563f4d5c948362567f5d8ed60c918101919091527ff9446b8e937d86f0bc87cac73923491692b123ca5f8761908494703758206adf606082015246608082018190526001600160a01b03831660a083015260009160c00160405160208183030381529060405280519060200120915050919050565b60006020828403121561011357600080fd5b81516001600160a01b038116811461012a57600080fd5b9392505050565b60805161079e61015260003960008181603d015261021f015261079e6000f3fe608060405234801561001057600080fd5b50600436106100365760003560e01c806368629bf41461003b5780638aebc4811461006f575b600080fd5b7f00000000000000000000000000000000000000000000000000000000000000005b60405190815260200160405180910390f35b61005d61007d36600461042f565b600061008b85858585610154565b95945050505050565b604080517f8b73c3c69bb8fe3d512ecc4cf759cc79239f7b179b0ffacaa9a75d522b39400f60208201527f6c85c0337eba1661327f94f3bf46c8a7f9311a563f4d5c948362567f5d8ed60c918101919091527ff9446b8e937d86f0bc87cac73923491692b123ca5f8761908494703758206adf6060820152466080820181905273ffffffffffffffffffffffffffffffffffffffff831660a083015260009160c00160405160208183030381529060405280519060200120915050919050565b60008473ffffffffffffffffffffffffffffffffffffffff167fcf5f9de2984132265203b5c335b25727702ca77262ff622e136baa7362bf1da98585856040516101a09392919061064e565b60405180910390a27fffffffffffffffffffffffffffffffffffffffffffffffffffffffffffffffe0840180517fd5a25ba2e97094ad7d83dc28a6572da797d6b3e7fc6663bd93efb789fc17e48982526101a0822091526040517f190100000000000000000000000000000000000000000000000000000000000081527f0000000000000000000000000000000000000000000000000000000000000000600282015260228101919091526042902061008b565b73ffffffffffffffffffffffffffffffffffffffff8116811461027657600080fd5b50565b803561028481610254565b919050565b7f4e487b7100000000000000000000000000000000000000000000000000000000600052604160045260246000fd5b604051610180810167ffffffffffffffff811182821017156102dc576102dc610289565b60405290565b803563ffffffff8116811461028457600080fd5b8035801515811461028457600080fd5b600082601f83011261031757600080fd5b813567ffffffffffffffff8082111561033257610332610289565b604051601f83017fffffffffffffffffffffffffffffffffffffffffffffffffffffffffffffffe0908116603f0116810190828211818310171561037857610378610289565b8160405283815286602085880101111561039157600080fd5b836020870160208301376000602085830101528094505050505092915050565b6000604082840312156103c357600080fd5b6040516040810167ffffffffffffffff82821081831117156103e7576103e7610289565b8160405282935084359150600282106103ff57600080fd5b9082526020840135908082111561041557600080fd5b5061042285828601610306565b6020830152505092915050565b6000806000808486036101e081121561044757600080fd5b853561045281610254565b94506101807fffffffffffffffffffffffffffffffffffffffffffffffffffffffffffffffe0820181131561048657600080fd5b61048e6102b8565b915061049c60208801610279565b82526104aa60408801610279565b60208301526104bb60608801610279565b60408301526080870135606083015260a087013560808301526104e060c088016102e2565b60a083015260e087013560c08301526101008088013560e084015261012080890135828501526101409150610516828a016102f6565b908401526101608881013591840191909152908701359082015292506101a085013567ffffffffffffffff8082111561054e57600080fd5b61055a888389016103b1565b93506101c087013591508082111561057157600080fd5b5061057e87828801610306565b91505092959194509250565b6000815180845260005b818110156105b057602081850181015186830182015201610594565b5060006020828601015260207fffffffffffffffffffffffffffffffffffffffffffffffffffffffffffffffe0601f83011685010191505092915050565b6000815160028110610629577f4e487b7100000000000000000000000000000000000000000000000000000000600052602160045260246000fd5b80845250602082015160406020850152610646604085018261058a565b949350505050565b835173ffffffffffffffffffffffffffffffffffffffff16815260006101c06020860151610694602085018273ffffffffffffffffffffffffffffffffffffffff169052565b5060408601516106bc604085018273ffffffffffffffffffffffffffffffffffffffff169052565b50606086015160608401526080860151608084015260a08601516106e860a085018263ffffffff169052565b5060c086015160c084015260e086015160e08401526101008087015181850152506101208087015161071d8286018215159052565b5050610140868101519084015261016080870151908401526101808301819052610749818401866105ee565b90508281036101a084015261075e818561058a565b969550505050505056fea2646970667358221220e9875e51414bfad5c7aa7f9b16df27b948d0898549a85db716466c2d1889970164736f6c63430008100033","linkReferences":{}},"methodIdentifiers":{"broadcastOrderPublic(address,(address,address,address,uint256,uint256,uint32,bytes32,uint256,bytes32,bool,bytes32,bytes32),(uint8,bytes),bytes)":"8aebc481","cowSwapDomainSeparatorPublic()":"68629bf4"},"id":45}