{
  "abi": [
    {
      "inputs": [
        {
          "internalType": "uint8",
          "name": "b",
          "type": "uint8"
        }
      ],
      "name": "toAddress",
      "outputs": [
        {
          "internalType": "address",
          "name": "",
          "type": "address"
        }
      ],
      "stateMutability": "pure",
      "type": "function"
    },
    {
      "inputs": [
        {
          "internalType": "uint8",
          "name": "b",
          "type": "uint8"
        }
      ],
      "name": "toBytes32",
      "outputs": [
        {
          "internalType": "bytes32",
          "name": "",
          "type": "bytes32"
        }
      ],
      "stateMutability": "pure",
      "type": "function"
    },
    {
      "inputs": [
        {
          "internalType": "uint8",
          "name": "b",
          "type": "uint8"
        }
      ],
      "name": "toInt64",
      "outputs": [
        {
          "internalType": "int64",
          "name": "",
          "type": "int64"
        }
      ],
      "stateMutability": "pure",
      "type": "function"
    },
    {
      "inputs": [
        {
          "internalType": "uint8",
          "name": "b",
          "type": "uint8"
        }
      ],
      "name": "toUint128",
      "outputs": [
        {
          "internalType": "uint128",
          "name": "",
          "type": "uint128"
        }
      ],
      "stateMutability": "pure",
      "type": "function"
    },
    {
      "inputs": [
        {
          "internalType": "uint8",
          "name": "b",
          "type": "uint8"
        }
      ],
      "name": "toUint256",
      "outputs": [
        {
          "internalType": "uint256",
          "name": "",
          "type": "uint256"
        }
      ],
      "stateMutability": "pure",
      "type": "function"
    },
    {
      "inputs": [
        {
          "internalType": "uint8",
          "name": "b",
          "type": "uint8"
        }
      ],
      "name": "toUint32",
      "outputs": [
        {
          "internalType": "uint32",
          "name": "",
          "type": "uint32"
        }
      ],
      "stateMutability": "pure",
      "type": "function"
    }
  ],
  "bytecode": {
    "object": "0x6102a561003a600b82828239805160001a60731461002d57634e487b7160e01b600052600060045260246000fd5b30600052607381538281f3fe730000000000000000000000000000000000000000301460806040526004361061007c5760003560e01c8063b76a3e231161005a578063b76a3e23146100db578063c9b924e114610113578063d4f5fdc31461013b57600080fd5b80630b4e45e6146100815780635d6243611461008157806392425bce146100a7575b600080fd5b61009461008f3660046101e4565b610161565b6040519081526020015b60405180910390f35b6100ba6100b53660046101e4565b610174565b6040516fffffffffffffffffffffffffffffffff909116815260200161009e565b6100ee6100e93660046101e4565b610181565b60405173ffffffffffffffffffffffffffffffffffffffff909116815260200161009e565b6101266101213660046101e4565b61018e565b60405163ffffffff909116815260200161009e565b61014e6101493660046101e4565b61019b565b60405160079190910b815260200161009e565b600061016e8260206101a4565b92915050565b600061016e8260106101a4565b600061016e8260146101a4565b600061016e8260046101a4565b600061016e8260085b600080805b8360ff168160ff1610156101dc576101c860ff8616600884901b61023d565b9150806101d481610250565b9150506101a9565b509392505050565b6000602082840312156101f657600080fd5b813560ff8116811461020757600080fd5b9392505050565b7f4e487b7100000000000000000000000000000000000000000000000000000000600052601160045260246000fd5b8082018082111561016e5761016e61020e565b600060ff821660ff81036102665761026661020e565b6001019291505056fea2646970667358221220e776c3568806fafb48f133855f89d583242c420247d670331ac44f631357274b64736f6c63430008100033",
    "linkReferences": {}
  },
  "methodIdentifiers": {
    "toAddress(uint8)": "b76a3e23",
    "toBytes32(uint8)": "5d624361",
    "toInt64(uint8)": "d4f5fdc3",
    "toUint128(uint8)": "92425bce",
    "toUint256(uint8)": "0b4e45e6",
    "toUint32(uint8)": "c9b924e1"
  },
  "id": 47
}