{
  "abi": [
    {
      "inputs": [
        {
          "internalType": "uint8",
          "name": "b",
          "type": "uint8"
        }
      ],
      "name": "toAddress",
      "outputs": [
        {
          "internalType": "address",
          "name": "",
          "type": "address"
        }
      ],
      "stateMutability": "pure",
      "type": "function"
    },
    {
      "inputs": [
        {
          "internalType": "uint8",
          "name": "b",
          "type": "uint8"
        }
      ],
      "name": "toBytes32",
      "outputs": [
        {
          "internalType": "bytes32",
          "name": "",
          "type": "bytes32"
        }
      ],
      "stateMutability": "pure",
      "type": "function"
    },
    {
      "inputs": [
        {
          "internalType": "uint8",
          "name": "b",
          "type": "uint8"
        }
      ],
      "name": "toInt64",
      "outputs": [
        {
          "internalType": "int64",
          "name": "",
          "type": "int64"
        }
      ],
      "stateMutability": "pure",
      "type": "function"
    },
    {
      "inputs": [
        {
          "internalType": "uint8",
          "name": "b",
          "type": "uint8"
        }
      ],
      "name": "toUint256",
      "outputs": [
        {
          "internalType": "uint256",
          "name": "",
          "type": "uint256"
        }
      ],
      "stateMutability": "pure",
      "type": "function"
    },
    {
      "inputs": [
        {
          "internalType": "uint8",
          "name": "b",
          "type": "uint8"
        }
      ],
      "name": "toUint32",
      "outputs": [
        {
          "internalType": "uint32",
          "name": "",
          "type": "uint32"
        }
      ],
      "stateMutability": "pure",
      "type": "function"
    }
  ],
  "bytecode": {
    "object": "0x61025961003a600b82828239805160001a60731461002d57634e487b7160e01b600052600060045260246000fd5b30600052607381538281f3fe73000000000000000000000000000000000000000030146080604052600436106100715760003560e01c8063b76a3e231161005a578063b76a3e231461009c578063c9b924e1146100d4578063d4f5fdc3146100fc57600080fd5b80630b4e45e6146100765780635d62436114610076575b600080fd5b610089610084366004610198565b610122565b6040519081526020015b60405180910390f35b6100af6100aa366004610198565b610135565b60405173ffffffffffffffffffffffffffffffffffffffff9091168152602001610093565b6100e76100e2366004610198565b610142565b60405163ffffffff9091168152602001610093565b61010f61010a366004610198565b61014f565b60405160079190910b8152602001610093565b600061012f826020610158565b92915050565b600061012f826014610158565b600061012f826004610158565b600061012f8260085b600080805b8360ff168160ff1610156101905761017c60ff8616600884901b6101f1565b91508061018881610204565b91505061015d565b509392505050565b6000602082840312156101aa57600080fd5b813560ff811681146101bb57600080fd5b9392505050565b7f4e487b7100000000000000000000000000000000000000000000000000000000600052601160045260246000fd5b8082018082111561012f5761012f6101c2565b600060ff821660ff810361021a5761021a6101c2565b6001019291505056fea2646970667358221220a9f1941dff25ff2ae9a3af9b181ba2289b96d559acbc661577ce15e576cfa47464736f6c63430008100033",
    "linkReferences": {}
  },
  "methodIdentifiers": {
    "toAddress(uint8)": "b76a3e23",
    "toBytes32(uint8)": "5d624361",
    "toInt64(uint8)": "d4f5fdc3",
    "toUint256(uint8)": "0b4e45e6",
    "toUint32(uint8)": "c9b924e1"
  },
  "id": 25
}