{
  "abi": [
    {
      "inputs": [
        {
          "internalType": "address",
          "name": "",
          "type": "address"
        }
      ],
      "name": "isSolver",
      "outputs": [
        {
          "internalType": "bool",
          "name": "",
          "type": "bool"
        }
      ],
      "stateMutability": "pure",
      "type": "function"
    }
  ],
  "bytecode": {
    "object": "0x608060405234801561001057600080fd5b5060c38061001f6000396000f3fe6080604052348015600f57600080fd5b506004361060285760003560e01c806302cc250d14602d575b600080fd5b603e60383660046052565b50600190565b604051901515815260200160405180910390f35b600060208284031215606357600080fd5b813573ffffffffffffffffffffffffffffffffffffffff81168114608657600080fd5b939250505056fea26469706673582212209ed65e8bba258b2556f54a2b78c401afeb119de1c5e935a61c4211e97c17763464736f6c63430008100033",
    "linkReferences": {}
  },
  "methodIdentifiers": {
    "isSolver(address)": "02cc250d"
  },
  "id": 41
}