{
  "abi": [
    {
      "inputs": [],
      "name": "data",
      "outputs": [
        {
          "internalType": "bytes",
          "name": "",
          "type": "bytes"
        }
      ],
      "stateMutability": "view",
      "type": "function"
    },
    {
      "inputs": [
        {
          "internalType": "address payable",
          "name": "_to",
          "type": "address"
        },
        {
          "internalType": "uint256",
          "name": "_value",
          "type": "uint256"
        },
        {
          "internalType": "bytes",
          "name": "_data",
          "type": "bytes"
        }
      ],
      "name": "execCall",
      "outputs": [
        {
          "internalType": "bytes",
          "name": "",
          "type": "bytes"
        }
      ],
      "stateMutability": "nonpayable",
      "type": "function"
    },
    {
      "inputs": [],
      "name": "lastFallbackCallReturnData",
      "outputs": [
        {
          "internalType": "bytes",
          "name": "",
          "type": "bytes"
        }
      ],
      "stateMutability": "view",
      "type": "function"
    },
    {
      "inputs": [],
      "name": "lastFallbackCallSuccess",
      "outputs": [
        {
          "internalType": "bool",
          "name": "",
          "type": "bool"
        }
      ],
      "stateMutability": "view",
      "type": "function"
    },
    {
      "inputs": [
        {
          "internalType": "address payable",
          "name": "_to",
          "type": "address"
        },
        {
          "internalType": "uint256",
          "name": "_value",
          "type": "uint256"
        },
        {
          "internalType": "bytes",
          "name": "_data",
          "type": "bytes"
        }
      ],
      "name": "setCallOnReceive",
      "outputs": [],
      "stateMutability": "nonpayable",
      "type": "function"
    },
    {
      "inputs": [],
      "name": "to",
      "outputs": [
        {
          "internalType": "address payable",
          "name": "",
          "type": "address"
        }
      ],
      "stateMutability": "view",
      "type": "function"
    },
    {
      "inputs": [],
      "name": "value",
      "outputs": [
        {
          "internalType": "uint256",
          "name": "",
          "type": "uint256"
        }
      ],
      "stateMutability": "view",
      "type": "function"
    },
    {
      "stateMutability": "payable",
      "type": "receive"
    }
  ],
  "bytecode": {
    "object": "0x608060405234801561001057600080fd5b506109b7806100206000396000f3fe6080604052600436106100745760003560e01c80633fa4f2451161004e5780633fa4f245146101b457806373d4a13a146101d85780637f856e8f146101ed578063fd70c84c1461020d57600080fd5b80630d4e302d14610119578063131519811461013b578063196a0e3b1461019257600080fd5b366101145760005460015460405173ffffffffffffffffffffffffffffffffffffffff909216916100a790600290610411565b60006040518083038185875af1925050503d80600081146100e4576040519150601f19603f3d011682016040523d82523d6000602084013e6100e9565b606091505b506003600060046100fa8482610523565b508391906101000a81548160ff0219169083151502179055005b600080fd5b34801561012557600080fd5b50610139610134366004610666565b610237565b005b34801561014757600080fd5b506000546101689073ffffffffffffffffffffffffffffffffffffffff1681565b60405173ffffffffffffffffffffffffffffffffffffffff90911681526020015b60405180910390f35b34801561019e57600080fd5b506101a7610290565b6040516101899190610711565b3480156101c057600080fd5b506101ca60015481565b604051908152602001610189565b3480156101e457600080fd5b506101a761031e565b3480156101f957600080fd5b506101a7610208366004610762565b61032b565b34801561021957600080fd5b506003546102279060ff1681565b6040519015158152602001610189565b600080547fffffffffffffffffffffffff00000000000000000000000000000000000000001673ffffffffffffffffffffffffffffffffffffffff86161790556001839055600261028982848361084b565b5050505050565b6004805461029d906103be565b80601f01602080910402602001604051908101604052809291908181526020018280546102c9906103be565b80156103165780601f106102eb57610100808354040283529160200191610316565b820191906000526020600020905b8154815290600101906020018083116102f957829003601f168201915b505050505081565b6002805461029d906103be565b60606000808573ffffffffffffffffffffffffffffffffffffffff1685856040516103569190610965565b60006040518083038185875af1925050503d8060008114610393576040519150601f19603f3d011682016040523d82523d6000602084013e610398565b606091505b5090925090508115156000036103b5576040513d806000833e8082fd5b95945050505050565b600181811c908216806103d257607f821691505b60208210810361040b577f4e487b7100000000000000000000000000000000000000000000000000000000600052602260045260246000fd5b50919050565b600080835461041f816103be565b60018281168015610437576001811461046a57610499565b7fffffffffffffffffffffffffffffffffffffffffffffffffffffffffffffff0084168752821515830287019450610499565b8760005260208060002060005b858110156104905781548a820152908401908201610477565b50505082870194505b50929695505050505050565b7f4e487b7100000000000000000000000000000000000000000000000000000000600052604160045260246000fd5b601f82111561051e57600081815260208120601f850160051c810160208610156104fb5750805b601f850160051c820191505b8181101561051a57828155600101610507565b5050505b505050565b815167ffffffffffffffff81111561053d5761053d6104a5565b6105518161054b84546103be565b846104d4565b602080601f8311600181146105a4576000841561056e5750858301515b7fffffffffffffffffffffffffffffffffffffffffffffffffffffffffffffffff600386901b1c1916600185901b17855561051a565b6000858152602081207fffffffffffffffffffffffffffffffffffffffffffffffffffffffffffffffe08616915b828110156105f1578886015182559484019460019091019084016105d2565b508582101561062d57878501517fffffffffffffffffffffffffffffffffffffffffffffffffffffffffffffffff600388901b60f8161c191681555b5050505050600190811b01905550565b803573ffffffffffffffffffffffffffffffffffffffff8116811461066157600080fd5b919050565b6000806000806060858703121561067c57600080fd5b6106858561063d565b935060208501359250604085013567ffffffffffffffff808211156106a957600080fd5b818701915087601f8301126106bd57600080fd5b8135818111156106cc57600080fd5b8860208285010111156106de57600080fd5b95989497505060200194505050565b60005b838110156107085781810151838201526020016106f0565b50506000910152565b60208152600082518060208401526107308160408501602087016106ed565b601f017fffffffffffffffffffffffffffffffffffffffffffffffffffffffffffffffe0169190910160400192915050565b60008060006060848603121561077757600080fd5b6107808461063d565b925060208401359150604084013567ffffffffffffffff808211156107a457600080fd5b818601915086601f8301126107b857600080fd5b8135818111156107ca576107ca6104a5565b604051601f82017fffffffffffffffffffffffffffffffffffffffffffffffffffffffffffffffe0908116603f01168101908382118183101715610810576108106104a5565b8160405282815289602084870101111561082957600080fd5b8260208601602083013760006020848301015280955050505050509250925092565b67ffffffffffffffff831115610863576108636104a5565b6108778361087183546103be565b836104d4565b6000601f8411600181146108c957600085156108935750838201355b7fffffffffffffffffffffffffffffffffffffffffffffffffffffffffffffffff600387901b1c1916600186901b178355610289565b6000838152602090207fffffffffffffffffffffffffffffffffffffffffffffffffffffffffffffffe0861690835b8281101561091857868501358255602094850194600190920191016108f8565b5086821015610953577fffffffffffffffffffffffffffffffffffffffffffffffffffffffffffffffff60f88860031b161c19848701351681555b505060018560011b0183555050505050565b600082516109778184602087016106ed565b919091019291505056fea2646970667358221220e62b91b11af9868bcf0341458381d74a7e549d390aa1a05df007ce1d394ce93f64736f6c63430008100033",
    "linkReferences": {}
  },
  "methodIdentifiers": {
    "data()": "73d4a13a",
    "execCall(address,uint256,bytes)": "7f856e8f",
    "lastFallbackCallReturnData()": "196a0e3b",
    "lastFallbackCallSuccess()": "fd70c84c",
    "setCallOnReceive(address,uint256,bytes)": "0d4e302d",
    "to()": "13151981",
    "value()": "3fa4f245"
  },
  "id": 43
}